:020000040000fa
:080000000002040000000000f2
:020000040000fa
:0400080006030000eb
:020000040000fa
:04000c0040030000ad
:020000040000fa
:040010007803000071
:020000040000fa
:0400140022030000c3
:020000040000fa
:040018005c03000085
:020000040000fa
:04001c00b20400002a
:020000040000fa
:040020009403000045
:020000040000fa
:04002400b204000022
:020000040000fa
:04002800b20400001e
:020000040000fa
:04002c00be0300000f
:020000040000fa
:04003000b204000016
:020000040000fa
:04003400b204000012
:020000040000fa
:04003800b20400000e
:020000040000fa
:04003c00b20400000a
:020000040000fa
:04004000b204000006
:020000040000fa
:04004400b204000002
:020000040000fa
:04004800b2040000fe
:020000040000fa
:04004c00b2040000fa
:020000040000fa
:04005000b2040000f6
:020000040000fa
:04005400b2040000f2
:020000040000fa
:04005800b2040000ee
:020000040000fa
:04005c00b2040000ea
:020000040000fa
:04006000b2040000e6
:020000040000fa
:04006400b2040000e2
:020000040000fa
:04006800b2040000de
:020000040000fa
:04006c00b2040000da
:020000040000fa
:04007000b2040000d6
:020000040000fa
:04007400b2040000d2
:020000040000fa
:04007800b2040000ce
:020000040000fa
:04007c00b2040000ca
:020000040000fa
:04008000b2040000c6
:020000040000fa
:04008400b2040000c2
:020000040000fa
:04008800b2040000be
:020000040000fa
:04008c00b2040000ba
:020000040000fa
:04009000b2040000b6
:020000040000fa
:040094003404000030
:020000040000fa
:04009800e803000079
:020000040000fa
:04009c00b2040000aa
:020000040000fa
:0400a000b2040000a6
:020000040000fa
:0400a400b2040000a2
:020000040000fa
:0400a800b20400009e
:020000040000fa
:0400ac00b20400009a
:020000040000fa
:0400b000b204000096
:020000040000fa
:0400b400b204000092
:020000040000fa
:0400b800b20400008e
:020000040000fa
:0400bc00b20400008a
:020000040000fa
:0400c000b204000086
:020000040000fa
:0400c400b204000082
:020000040000fa
:0400c800b20400007e
:020000040000fa
:0400cc00b20400007a
:020000040000fa
:0400d000b204000076
:020000040000fa
:0400d400b204000072
:020000040000fa
:0400d800b20400006e
:020000040000fa
:0400dc00b20400006a
:020000040000fa
:0400e000b204000066
:020000040000fa
:0400e400b204000062
:020000040000fa
:0400e800b20400005e
:020000040000fa
:0400ec00b20400005a
:020000040000fa
:0400f0008a0400007e
:020000040000fa
:0400f400b204000052
:020000040000fa
:0400f800b20400004e
:020000040000fa
:0400fc00b20400004a
:020000040000fa
:04010000b204000045
:020000040000fa
:04010400b204000041
:020000040000fa
:04010800b20400003d
:020000040000fa
:04010c00b204000039
:020000040000fa
:04011000b204000035
:020000040000fa
:04011400b204000031
:020000040000fa
:04011800b20400002d
:020000040000fa
:04011c00b204000029
:020000040000fa
:04012000b204000025
:020000040000fa
:04012400b204000021
:020000040000fa
:04012800b20400001d
:020000040000fa
:04012c00b204000019
:020000040000fa
:04013000b204000015
:020000040000fa
:04013400b204000011
:020000040000fa
:04013800b20400000d
:020000040000fa
:04013c00b204000009
:020000040000fa
:04014000b204000005
:020000040000fa
:04014400b204000001
:020000040000fa
:04014800b2040000fd
:020000040000fa
:04014c00b2040000f9
:020000040000fa
:04015000b2040000f5
:020000040000fa
:04015400b2040000f1
:020000040000fa
:04015800b2040000ed
:020000040000fa
:04015c00b2040000e9
:020000040000fa
:04016000b2040000e5
:020000040000fa
:04016400b2040000e1
:020000040000fa
:04016800b2040000dd
:020000040000fa
:04016c00b2040000d9
:020000040000fa
:04017000b2040000d5
:020000040000fa
:04017400b2040000d1
:020000040000fa
:04017800b2040000cd
:020000040000fa
:04017c00b2040000c9
:020000040000fa
:04018000b2040000c5
:020000040000fa
:04018400b2040000c1
:020000040000fa
:04018800b2040000bd
:020000040000fa
:04018c00b2040000b9
:020000040000fa
:04019000b2040000b5
:020000040000fa
:04019400b2040000b1
:020000040000fa
:04019800b2040000ad
:020000040000fa
:04019c00b2040000a9
:020000040000fa
:0401a000b2040000a5
:020000040000fa
:0401a400b2040000a1
:020000040000fa
:0401a800b20400009d
:020000040000fa
:0401ac00b204000099
:020000040000fa
:0401b000b204000095
:020000040000fa
:0401b400b204000091
:020000040000fa
:0401b800b20400008d
:020000040000fa
:0401bc00b204000089
:020000040000fa
:0401c000b204000085
:020000040000fa
:0401c400b204000081
:020000040000fa
:0401c800b20400007d
:020000040000fa
:0401cc00b204000079
:020000040000fa
:0401d000b204000075
:020000040000fa
:0401d400b204000071
:020000040000fa
:0401d800b20400006d
:020000040000fa
:0401dc00b204000069
:020000040000fa
:0401e000b204000065
:020000040000fa
:0401e400b204000061
:020000040000fa
:0401e800b20400005d
:020000040000fa
:0401ec00b204000059
:020000040000fa
:0401f000b204000055
:020000040000fa
:0401f400b204000051
:020000040000fa
:0401f800b20400004d
:020000040000fa
:0401fc00b204000049
:020000040000fa
:04020000b204000044
:020000040000fa
:04020400b204000040
:020000040000fa
:04020800b20400003c
:020000040000fa
:04020c00b204000038
:020000040000fa
:04021000b204000034
:020000040000fa
:04021400b204000030
:020000040000fa
:04021800b20400002c
:020000040000fa
:04021c00b204000028
:020000040000fa
:04022000b204000024
:020000040000fa
:04022400b204000020
:020000040000fa
:04022800b20400001c
:020000040000fa
:04022c00b204000018
:020000040000fa
:04023000b204000014
:020000040000fa
:04023400b204000010
:020000040000fa
:04023800b20400000c
:020000040000fa
:04023c00b204000008
:020000040000fa
:04024000b204000004
:020000040000fa
:04024400b204000000
:020000040000fa
:04024800b2040000fc
:020000040000fa
:04024c00b2040000f8
:020000040000fa
:04025000b2040000f4
:020000040000fa
:04025400b2040000f0
:020000040000fa
:04025800b2040000ec
:020000040000fa
:04025c00b2040000e8
:020000040000fa
:04026000b2040000e4
:020000040000fa
:04026400b2040000e0
:020000040000fa
:04026800b2040000dc
:020000040000fa
:04026c00b2040000d8
:020000040000fa
:04027000b2040000d4
:020000040000fa
:04027400b2040000d0
:020000040000fa
:04027800b2040000cc
:020000040000fa
:04027c00b2040000c8
:020000040000fa
:04028000b2040000c4
:020000040000fa
:04028400b2040000c0
:020000040000fa
:04028800b2040000bc
:020000040000fa
:04028c00b2040000b8
:020000040000fa
:04029000b2040000b4
:020000040000fa
:04029400b2040000b0
:020000040000fa
:04029800b2040000ac
:020000040000fa
:04029c00b2040000a8
:020000040000fa
:0402a000b2040000a4
:020000040000fa
:0402a400b2040000a0
:020000040000fa
:0402a800b20400009c
:020000040000fa
:0402ac00b204000098
:020000040000fa
:0402b000b204000094
:020000040000fa
:0402b400b204000090
:020000040000fa
:0402b800b20400008c
:020000040000fa
:0402bc00b204000088
:020000040000fa
:0402c000b204000084
:020000040000fa
:0402c400b204000080
:020000040000fa
:0402c800b20400007c
:020000040000fa
:0402cc00b204000078
:020000040000fa
:0402d000b204000074
:020000040000fa
:0402d400b204000070
:020000040000fa
:0402d800b20400006c
:020000040000fa
:0402dc00b204000068
:020000040000fa
:0402e000b204000064
:020000040000fa
:0402e400b204000060
:020000040000fa
:0402e800b20400005c
:020000040000fa
:0402ec00b204000058
:020000040000fa
:0402f000b204000054
:020000040000fa
:0402f400b204000050
:020000040000fa
:0402f800b20400004c
:020000040000fa
:0402fc00b204000048
:020000040000fa
:04030000b204000043
:020000040000fa
:04030400b20400003f
:020000040000fa
:04030800b20400003b
:020000040000fa
:04030c00b204000037
:020000040000fa
:04031000b204000033
:020000040000fa
:04031400b20400002f
:020000040000fa
:04031800b20400002b
:020000040000fa
:04031c00b204000027
:020000040000fa
:040320009404000041
:020000040000fa
:04032400b20400001f
:020000040000fa
:04032800b20400001b
:020000040000fa
:04032c00b204000017
:020000040000fa
:04033000b204000013
:020000040000fa
:04033400b20400000f
:020000040000fa
:100400006f0421000eff26000e018800000000008e
:10041000000020000000e000020032000001200087
:100420002002880014000700500107000000e000cf
:1004300003003a0060cd20000100200002003700d8
:100440000000200001002000810f70000100320038
:100450000f000700000020000000e0000200320052
:100460000000020000000000be09020000000000c1
:100470000040da000000fe00200020000000e00044
:1004800002003200100020009001880000000600e9
:10049000a1028800800478000000eb001f003700f4
:1004a000e284440054a0b4009905ba00e2844400f8
:1004b00054a0b4009906ba00e284440054a0b400e9
:1004c0000006eb00476fde00fd07b200ae018800ba
:1004d000636ce10003003a000ad801000000eb0061
:1004e0000e003700606ce10008003a00004deb00a0
:1004f0000a05e800020039003420ec000af0a000f0
:100500008b05e900f9ff3e00040037006168e10057
:10051000010032000086eb000b00070019c7ba008b
:100520001905ba000e04e00003003a000a00e000da
:10053000dbff3a0000000600fe07b200ae028800b2
:100540008a047800f5ff37000cd0a300e20f4d00bd
:100550001c003b0089027800354dba000a05e8000e
:10056000020039003420ec000af0a0008b05e900fd
:100570000f003200254dba000a05e80002003900dc
:100580003420ec000af0a0008b05e90008003200de
:100590000c00e0000600320015cdba000a05e800a4
:1005a000020039003420ec000af0a0008b05e900bd
:1005b0008984e80054a0b4000b00e000e2ff3a0098
:1005c000000006009902ba00055d78008b05e9007d
:1005d000f7ff3200c82ade00055d78008b05e900d0
:1005e000f3ff32000c00e000f1ff320019ddba0029
:1005f000eeff3700b80b04000000000064070400a1
:100600000000000086090400000000003600f80029
:10061000809fbe00829fbe00849fbe00869fbe005a
:10062000c028a9000000eb00070507004f03be002b
:100630004f02be004f01be004f00be003600f90061
:10064000004006003600f800809fbe00829fbe007a
:10065000849fbe00869fbe00f6040700c048a90024
:1006600010002000f80407004f03be004f02be0038
:100670004f01be004f00be003600f90000400600ea
:100680003600f800809fbe00829fbe00849fbe009f
:10069000869fbe00c068a90020002000ea04070071
:1006a0004f03be004f02be004f01be004f00be0010
:1006b0003600f900004006003600f800809fbe00ba
:1006c000829fbe00849fbe00869fbe00c088a90096
:1006d00030002000dc0407004f03be004f02be00c4
:1006e0004f01be004f00be003600f900004006007a
:1006f0003600f800809fbe00829fbe00849fbe002f
:10070000869fbe00c608a90070002000ce04070026
:100710004f03be004f02be004f01be004f00be009f
:100720003600f900004006003600f800809fbe0049
:10073000829fbe00849fbe00869fbe00c508ab009e
:1007400003003200c508a900c0002000be04070055
:10075000c488ab0003003200c488a900a0002000b8
:10076000b9040700c408ab0003003200c408a900a4
:10077000b0002000b4040700ffff37003600f80087
:10078000809fbe00829fbe00849fbe00869fbe00e9
:10079000808080000000e0000100320000000100c5
:1007a000500421001048e80011c0b30040042100ab
:1007b000014878000028a9004f03be004f02be0088
:1007c0004f01be004f00be003600f9000040060099
:1007d0003600f800809fbe00829fbe00849fbe004e
:1007e000869fbe00008080000000e0000100320013
:1007f000000001005280800040808000820f500085
:1008000002003a002388a900110037000388a900dc
:1008100043042100b40321000b0037004080800016
:10082000b080fb00811388004080880040808000f9
:10083000830f500001003a0044808800408080000f
:10084000820f5000020032006682ab00f3ff3200dc
:100850004f03be004f02be004f01be004f00be005e
:100860003600f900004006003600f800809fbe0008
:10087000829fbe00849fbe00869fbe0010808000c5
:100880000000e00001003200000001000368a90040
:1008900023808000a203210014c0b300250321009f
:1008a0001400370030808000611380000148780018
:1008b00030808000820f5000050032000610ec00ee
:1008c000808f5100020032000630ec000900370032
:1008d00031808000828f500004003a00858f5100e3
:1008e000020032003580880002003700c00021007d
:1008f000044878006622ab00eaff32004f03be00d6
:100900004f02be004f01be004f00be003600f9008e
:10091000004006006422ab00010032006422a900fe
:100920000648a90000400600809fbe0017c8a90025
:100930006442ab00010032006442a90060c2a8001a
:1009400066a00a00600200004c00dd00f17180002a
:1009500001c0a10081007000f17188004f00be004d
:10096000004006000040da000000fe000000050024
:10097000889fbe008a9fbe0030044200b0844a00b7
:1009800030054b0090854b006000b1000898be0018
:100990000a90be000440e10005c8e10006d0e10075
:1009a00007d8e10002003100680040001008e800ac
:1009b0004f05be004f04be0000000600889fbe0029
:1009c0008a9fbe003004be002005be0004185400fb
:1009d00005985c0006185d0007985d001100200076
:1009e0000440e10005c8e10006d0e10007d8e100bd
:1009f000010039008000eb00108810004f05be0098
:100a00004f04be0000000600f4874700889fbe0028
:100a10008a9fbe008c9fbe008e1f7800d0b79f00bb
:100a2000e1b79f00f2b79f0083bf9f000605be009d
:100a30000404be00cfae97000000eb00c0b79f00db
:100a4000b0b79f00a0b79f0090b79f0080b79f00ee
:100a5000000678004fb09700000140000000e00061
:100a600006003d003c0007000f0747004500070057
:100a70000f004000beff07000500370036000700ea
:100a80000f0747003f0007000f004000cbff0700a3
:100a90004fb797000e00e0000c0035005fb29700e2
:100aa000efb297007fb397008fbb97001000200034
:100ab000010020006011b800000272008182720003
:100ac00002037300838373001c0007000c06e80018
:100ad00001042000810f5600deff3a000e00e00006
:100ae00005003d000802be000a03be0000fe2f0004
:100af0000f0040009eff07000d00e00005003a00d7
:100b00000fb297009fb297002fb39700bfb3970023
:100b10000a0007005fb09700efb097007fb1970021
:100b20008fb997004f0778004f06be004f05be00f3
:100b30004f04be004f01b100000006000100070095
:100b40000000060094b79f00a5b79f00b6b79f00ae
:100b5000c7b79f00000006009fb097004f08de0057
:100b600002017000a2b79f000fb097004f01de0096
:100b7000818040008100710091b79f000efe2f0020
:100b800000000600de0078004f09de000000400093
:100b90000000710080b79f006fa897004f01de0032
:100ba00081804000010f71000e0007004f3ade0007
:100bb0000000400004007000e0af9f000900070043
:100bc0000402420085824a0006034b0087834b00e3
:100bd000dcff07000802be000a03be0000fe2f0073
:100be000000006001fb29700afb297003fb3970016
:100bf000cfb3970000000600881f7800180020007f
:100c0000881f780080ff07008f87e9004f04780075
:100c100000000600801feb007bff07008f87e900c4
:100c200000000600889fbe008a9fbe00e00f5000b3
:100c3000e08f5800e00f5900e08f59000c003d0094
:100c40006044b8006055b8000000540081805c002a
:100c500002015d0083815d0018002000150007007f
:100c600008003d00180007000004eb0005003700f5
:100c70000004eb000f00070002003d001200070017
:100c800018002000dcff07000800e000060032002a
:100c90006022b8006033b8000000520081805a0022
:100ca00002015b0083815b004f05be004f04be0064
:100cb00000000600e00f5200e08f5a00e00f5b00da
:100cc000e08f5b00000006006044b8006055b8008b
:100cd0000402540085825c0006035d0087835d008a
:100ce00000000600889fbe008a9fbe008c1f78000f
:100cf000e00f5000e08f5800e00f5900e08f5900de
:100d00000d003d006044b8006055b800000054007c
:100d100081805c0002015d0083815d001c00200079
:100d20000820e10009a8e1000ab0e1000bb8e100e9
:100d30000d003d00080037000006eb00e00f5200f8
:100d4000e08f5a00e00f5b00e08f5b0006003d0083
:100d50006044b8006055b8000402540085825c000d
:100d600006035d0087835d00aaff07000c00e0001a
:100d7000060032006022b8006033b8000000520064
:100d800081805a0002015b0083815b004f0678007e
:100d90004f05be004f04be0000000600889fbe0045
:100da0008a9fbe008c1f78000006eb00e00f500009
:100db000e08f5800e00f5900e08f590007003d0018
:100dc0006044b8006055b8000000540081805c00a9
:100dd00002015d0083815d001c002000e00f5200d5
:100de000e08f5a00e00f5b00e08f5b0007003d00e2
:100df0006044b8006055b8000402540085825c006d
:100e000006035d0087835d000c00a2000c00070054
:100e10000c00e000060032006022b8006033b80029
:100e20000000520081805a0002015b0083815b0058
:100e30004f0678004f05be004f04be0000000600bc
:100e4000889fbe008a9fbe008c9fbe000404b8002d
:100e50000506b8008904460060854e000606b80005
:100e60000a054600e0854e000706b8008b054600df
:100e7000040eb800890446000a854e00e0854d0046
:100e8000050eb8000a0546008b854e00060eb80018
:100e90008b0546000416b8000a0546008b854e00f7
:100ea0000516b8008b054600041eb8008b054600e9
:100eb0000800be000a01be004f06be004f05be007e
:080ec0004f04be000000060013
:020000040000fa
:100ec80000000600000006003180800020808000bd
:100ed800808f50000300310080805000e98040007e
:100ee800010037008080500000c0eb00f20f2000a6
:100ef800828f500001003e0001407800000006008b
:100f08004180800050808000808f500003003600b0
:100f1800808050008100e900020037008080500086
:100f2800e880400000c0eb00f20f2000828f5000e4
:100f380001003e0001407800000006000000e000cb
:100f480003003a0040762000008088000100370046
:100f580000808800000006000000e00003003a005e
:100f680060982000108088000100370010808800f9
:100f7800000006002388a9002368a90037c8a90033
:100f880000082000001388006222ef0000402000c3
:100f9800201388002002200030138800800d2000d4
:100fa800401388006a22ef007422ef007622ef00d7
:100fb8007822ef007a22ef007c22ef007e22ef00f9
:100fc8008022ef008222ef008422ef00b00321008c
:100fd80040808800508088002003210020808800fd
:100fe800308088000c70ef0040762000d3ff0700a7
:100ff80060982000d8ff07002368a80037c8a80019
:1010080061e2a80060a2a8006082a80000000600b3
:10101800208080000610e300feff3200b040780018
:1010280020808800b2032100820f500002003a009d
:10103800200321002080880001407800000006007d
:10104800308080000490b60000f0a7000000ea009d
:101058000000ea004f00de0000000600418080002a
:1010680050808000808f50000300360000805000c0
:101078000000e900020037000080500068004000ce
:1010880000f0a7000000ea000000ea004f00de00c0
:1010980000000600881f780000447800efff070072
:1010a8000004e000fdff32005080800008587800fe
:1010b8005080880041042100810f500002003a004e
:1010c800b0032100508088002388a8004f047800ce
:1010d800000006000040eb00518080004280800044
:1010e800810f510004003a00000820006402b60095
:1010f8000000ea004f00de0000000600889fbe00e6
:101108008a1f780080047800010478006eff0700c9
:101118000085fb00880f550001003600080578009f
:101128000a00e000060032000004eb00b8ff0700e8
:10113800805c78000804e8008a0f5400fbff39003f
:101148000a0078004f0578004f04be000000060032
:10115800889fbe008a1f7800800478000104780008
:1011680067ff07000085fb00880f55000100360067
:10117800080578000a00e000060032000004eb00d1
:1011880039407800c3ff07000804e8008a0f5400bc
:10119800fbff39000a0078004f0578004f04be00b5
:1011a80000000600881f780047ff07000044780009
:1011b80053ff070080407800400020000804e0004a
:1011c8000400320010002000e94f540001003200f2
:1011d800200020000104e00003003200e9cf5000a5
:1011e80004003a00020037000030a0000100370078
:1011f8000040a0004f047800000006000410b4006e
:10120800b1032100810f500003003600690050002f
:10121800810f5000fdff3e001040780000000600de
:1012280029ff07000080fb000000e9004f00de00f6
:101238000000060032ff07000080fb000000e90004
:101248004f00de00000006003013800022138000eb
:101258008000eb00c000dd00000020008001eb00f2
:1012680002007000838070000000060024ff070061
:10127800804078000000eb000104e0000800320024
:10128800508080000810e300030036000810b50005
:101298000000e900020037000810b50068004000af
:1012a8000000060008ff0700804078000000eb00ff
:1012b8000104e0000a003200208080000610e300ec
:1012c8000400310031808000010050000000e90076
:1012d80003003700318080000100500068004000a2
:1012e8000000060061e2a80060a2a8006082a800d1
:1012f8000000060061e2a90060a2a9006082a900be
:1013080000000600000000000000000023eea80016
:1013180023eea9003c22ab00010032003c22a900c8
:1013280020128000000000000000000000000600fd
:101338003922a8008000eb006011b80004102e00cc
:10134800555f20006033b80092fe07000424240093
:10135800f50020006033b80025fe0700a50107004e
:101368003922a900803e200001002000a1010700c9
:1013780000000600889fbe00800107006162a80087
:101388004604c000080820000904200023cea80055
:1013980023cea900e111800001006400fdff3200a6
:1013a80000072000e2ff070050c5b30090000700c7
:1013b80002138000028064000a00320066a00a005e
:1013c800600200004c00dd00f171800001c0a10046
:1013d80081007000f17188000113800001806400b1
:1013e800f6ff3a0066a00a00600200004c00dd002b
:1013f800f171800001c0a10081007000f1718800c6
:1014080001102000c211800002806000fdff3a0038
:1014180000c5b3007600070010c6b30074000700cb
:1014280050c7b30072000700c0c6b30070000700c1
:10143800e111800001006400fdff320039e2a900db
:10144800101b20004002e300020032000012880056
:1014580002003700800d20000012880039e2a80041
:1014680060c6b30062000700c8ff37004f00de0007
:101478000000060001002400010060000000ea00ee
:101488004f00de000000060099800a0000000000fe
:101498000000060077800a00000000000000060037
:1014a80066800a00000000000000060044800a0070
:1014b80000000000000006000080ea00800fb6006f
:1014c800007c880000000600007c80000000060008
:1014d800881f7800fcff07000004780008007800e7
:1014e800e2ff07000004e0000200320000002800cc
:1014f800f1ff070008007800deff07000004e000a5
:101508000200320000002400ebff0700080078000a
:10151800ddff07000004e000020032000020200088
:10152800e5ff070008007800daff07000004e00084
:101538000200320000082000dfff070008007800e2
:10154800d7ff07000004e00002003200000420007a
:10155800d9ff070008007800d4ff07000004e00066
:101568000200320000012000d3ff07004f0478007a
:1015780000000600802fef00000006000008200091
:10158800c01188003a22ef003c22ef002002200020
:10159800f0118800800d2000001288004222ef0020
:1015a8004c22ef004e22ef005022ef005222ef00b3
:1015b8005422ef005622ef005822ef005a22ef0083
:1015c8005c22ef0039e2a80038a2a8003882a800ff
:1015d800000006003e22ab00feff3a003c22ab00b2
:1015e800010032003c22a900201280000000060001
:1015f8003e82ab00feff3a000080fb0040128800ec
:1016080000000600f01180000010a20011800a00fe
:1016180000000000000006000000eb003e82ab0066
:1016280004003a00000220003802b6000000ea0078
:101638004f00de000000060077a00a003c02000010
:1016480000000600f0118000e21180008000eb002d
:10165800c000dd00000020008001eb0002007000e7
:10166800838070000000060039e2a80038a2a800b4
:101678003882a8000000060039e2a90038a2a900b3
:101688003882a90000000600062eef00222eef0087
:1016980000902000f07188005a2eef00f001200021
:1016a80010708800d1ff2300f1708800f16f2e00c0
:1016b800d171880056aeef000c2eef00282eef00f7
:1016c800442eef00602eef000a2eef00262eef00ca
:1016d800422eef005e2eef00082eef00242eef00c2
:1016e800402eef005c2eef0000708800501820009c
:1016f800e0708800f00c2000c071880000c0220053
:10170800a07288000000eb0051052000b146880057
:10171800a10a2000b14688000068880090c2b30082
:101728002aedb700f00f2c009a0db6000080a0003b
:10173800d06c880090c4b30028edb70000fc2f00df
:10174800980db6003000b300c06c880000802000ff
:1017580051052000b1468800a10a2000b146880042
:1017680000688800000006000000060040088800a5
:10177800400421000048eb000000060040088000fb
:101788000000060020088800400421000048eb0003
:101798000000060020088000000006002028a9009c
:1017a800808088002028a800000006000421ef009f
:1017b800f0ff2a004008880020132800000888004d
:1017c8001010e20002003a0080bb2000f3ff07007f
:1017d8000028a9002028a800400421000048eb00a8
:1017e80000000600400421000048eb002028a80063
:1017f80001e1a8000000060001e1a9002028a900d5
:101808000000060040042100104078000004e000b9
:1018180002003200410421008048eb00000006006d
:10182800500421001080fb00000006005004210035
:101838000048eb000000060010002300307c880000
:10184800800c2000407c88008c2fef0020022000b4
:10185800507c880010102800707c8800d007200079
:10186800807c880010022000907c88009a2fef006e
:10187800b82fef00ba2fef00be2fef00002def00ba
:10188800a02fef00a42fef00a62fef00a82fef0046
:10189800aa2fef00ae2fef00b02fef00b22fef000e
:1018a80010002000a20920008107200053f8200022
:1018b80081497800824978008049780072052000c3
:1018c8006104200043f820008149780082497800ab
:1018d80080497800840fab00feff3a000102200027
:1018e800227c800002806000fdff320000000600bc
:1018f800eea00a008e0f000000000600f08f2f00f7
:10190800f2448000820060000180a000f144880059
:1019180081ff2f0072428000828060000100a000d9
:10192800714288005808b6000080a000c0428800b4
:10193800f0ff28004c08b60000c0a00060428800f4
:10194800f0f82f004008b6000040a00000428800d0
:1019580000000600210f2000220280008280600023
:10196800808070002102880000000600c3e8a800fb
:1019780000000000000000000000060042ff070011
:10198800adff0700ddff07007afd0700fbfe07003b
:1019980086ff0700f5ff070000022000edff0700a3
:0419a8000000060035
:020000040000fa
:1019ac001210000020000000800000000e1000004b
:1019bc000200000082000000ffff00004410000045
:1019cc000200000080000000101000000200000067
:1019dc0080000000321000001200000080000000a7
:1019ec00001000000e00000080000000000000004d
:020000040000fa
:1019fc00f03fb1000180b10006003500ee03090094
:101a0c0000000000403fb1000180b100fbff3d0031
:101a1c001000b000203fb00002003500008009002b
:081a2c000000000000000600ac
:020000040000fa
:101a34002001210080077800a00221000001880015
:0c1a44000000060070808800ffff3700e3
:020000040000fa
:020000040005f5
:047e0000ffffff0081
:020000040000fa
:020000040005f5
:047e2000ffffff0061
:020000040000fa
:020000040005f5
:047e300078ffff00d8
:020000040000fa
:020000040005f5
:047e38007fffff00c9
:020000040000fa
:020000040005f5
:047e40007f7fff0041
:020000040000fa
:020000040005f5
:047e4800ffffff0039
:020000040000fa
:020000040005f5
:047e5000deffff0052
:020000040000fa
:020000040005f5
:047e58000000ff0027
:020000040000fa
:020000040005f5
:047e60000000ff001f
:020000040000fa
:020000040005f5
:047e68000000ff0017
:020000040000fa
:020000040005f5
:047e70000000ff000f
:020000040000fa
:020000040005f5
:047e7800ffffff0009
:020000040000fa
:020000040005f5
:047e8000fffcff0004
:020000040000fa
:020000040005f5
:047e8800ffffff00f9
:020000040000fa
:020000040005f5
:047ff800ffffff0088
:020000040000fa
:020000040100f9
:04300000ffffff00cf
:00000001FF
