:020000040000fa
:080000000002040000000000f2
:020000040000fa
:04000800fe030000f3
:020000040000fa
:04000c0040040000ac
:020000040000fa
:040010008004000068
:020000040000fa
:040014001e040000c6
:020000040000fa
:040018006004000080
:020000040000fa
:04001c0002050000d9
:020000040000fa
:04002000a004000038
:020000040000fa
:0400240002050000d1
:020000040000fa
:0400280002050000cd
:020000040000fa
:04002c0002050000c9
:020000040000fa
:0400300002050000c5
:020000040000fa
:0400340002050000c1
:020000040000fa
:0400380002050000bd
:020000040000fa
:04003c0002050000b9
:020000040000fa
:0400400002050000b5
:020000040000fa
:0400440002050000b1
:020000040000fa
:0400480002050000ad
:020000040000fa
:04004c0002050000a9
:020000040000fa
:0400500002050000a5
:020000040000fa
:0400540002050000a1
:020000040000fa
:04005800020500009d
:020000040000fa
:04005c000205000099
:020000040000fa
:040060000205000095
:020000040000fa
:040064000205000091
:020000040000fa
:04006800020500008d
:020000040000fa
:04006c000205000089
:020000040000fa
:040070000205000085
:020000040000fa
:040074000205000081
:020000040000fa
:04007800020500007d
:020000040000fa
:04007c000205000079
:020000040000fa
:040080000205000075
:020000040000fa
:040084000205000071
:020000040000fa
:04008800020500006d
:020000040000fa
:04008c000205000069
:020000040000fa
:040090000205000065
:020000040000fa
:040094000205000061
:020000040000fa
:04009800020500005d
:020000040000fa
:04009c000205000059
:020000040000fa
:0400a0000205000055
:020000040000fa
:0400a4000205000051
:020000040000fa
:0400a800020500004d
:020000040000fa
:0400ac000205000049
:020000040000fa
:0400b0000205000045
:020000040000fa
:0400b4000205000041
:020000040000fa
:0400b800020500003d
:020000040000fa
:0400bc000205000039
:020000040000fa
:0400c0000205000035
:020000040000fa
:0400c4000205000031
:020000040000fa
:0400c800020500002d
:020000040000fa
:0400cc000205000029
:020000040000fa
:0400d0000205000025
:020000040000fa
:0400d4000205000021
:020000040000fa
:0400d800020500001d
:020000040000fa
:0400dc000205000019
:020000040000fa
:0400e0000205000015
:020000040000fa
:0400e4000205000011
:020000040000fa
:0400e800020500000d
:020000040000fa
:0400ec000205000009
:020000040000fa
:0400f0000205000005
:020000040000fa
:0400f4000205000001
:020000040000fa
:0400f80002050000fd
:020000040000fa
:0400fc0002050000f9
:020000040000fa
:0401000002050000f4
:020000040000fa
:0401040002050000f0
:020000040000fa
:0401080002050000ec
:020000040000fa
:04010c0002050000e8
:020000040000fa
:0401100002050000e4
:020000040000fa
:0401140002050000e0
:020000040000fa
:0401180002050000dc
:020000040000fa
:04011c0002050000d8
:020000040000fa
:0401200002050000d4
:020000040000fa
:0401240002050000d0
:020000040000fa
:0401280002050000cc
:020000040000fa
:04012c0002050000c8
:020000040000fa
:0401300002050000c4
:020000040000fa
:0401340002050000c0
:020000040000fa
:0401380002050000bc
:020000040000fa
:04013c0002050000b8
:020000040000fa
:0401400002050000b4
:020000040000fa
:0401440002050000b0
:020000040000fa
:0401480002050000ac
:020000040000fa
:04014c0002050000a8
:020000040000fa
:0401500002050000a4
:020000040000fa
:0401540002050000a0
:020000040000fa
:04015800020500009c
:020000040000fa
:04015c000205000098
:020000040000fa
:040160000205000094
:020000040000fa
:040164000205000090
:020000040000fa
:04016800020500008c
:020000040000fa
:04016c000205000088
:020000040000fa
:040170000205000084
:020000040000fa
:040174000205000080
:020000040000fa
:04017800020500007c
:020000040000fa
:04017c000205000078
:020000040000fa
:040180000205000074
:020000040000fa
:040184000205000070
:020000040000fa
:04018800020500006c
:020000040000fa
:04018c000205000068
:020000040000fa
:040190000205000064
:020000040000fa
:0401940086030000de
:020000040000fa
:04019800c20300009e
:020000040000fa
:04019c000205000058
:020000040000fa
:0401a0000205000054
:020000040000fa
:0401a4000205000050
:020000040000fa
:0401a800020500004c
:020000040000fa
:0401ac000205000048
:020000040000fa
:0401b0000205000044
:020000040000fa
:0401b4000205000040
:020000040000fa
:0401b800020500003c
:020000040000fa
:0401bc000205000038
:020000040000fa
:0401c0000205000034
:020000040000fa
:0401c4000205000030
:020000040000fa
:0401c800020500002c
:020000040000fa
:0401cc000205000028
:020000040000fa
:0401d0000205000024
:020000040000fa
:0401d4000205000020
:020000040000fa
:0401d800020500001c
:020000040000fa
:0401dc000205000018
:020000040000fa
:0401e0000205000014
:020000040000fa
:0401e4000205000010
:020000040000fa
:0401e800020500000c
:020000040000fa
:0401ec000205000008
:020000040000fa
:0401f0000205000004
:020000040000fa
:0401f4000205000000
:020000040000fa
:0401f80002050000fc
:020000040000fa
:0401fc0002050000f8
:020000040000fa
:0402000002050000f3
:020000040000fa
:0402040002050000ef
:020000040000fa
:04020800da04000014
:020000040000fa
:04020c0002050000e7
:020000040000fa
:0402100002050000e3
:020000040000fa
:0402140002050000df
:020000040000fa
:0402180002050000db
:020000040000fa
:04021c0002050000d7
:020000040000fa
:0402200002050000d3
:020000040000fa
:0402240002050000cf
:020000040000fa
:0402280002050000cb
:020000040000fa
:04022c0002050000c7
:020000040000fa
:0402300002050000c3
:020000040000fa
:0402340002050000bf
:020000040000fa
:0402380002050000bb
:020000040000fa
:04023c0002050000b7
:020000040000fa
:0402400002050000b3
:020000040000fa
:0402440002050000af
:020000040000fa
:0402480002050000ab
:020000040000fa
:04024c0002050000a7
:020000040000fa
:0402500002050000a3
:020000040000fa
:04025400020500009f
:020000040000fa
:04025800020500009b
:020000040000fa
:04025c000205000097
:020000040000fa
:040260000205000093
:020000040000fa
:04026400020500008f
:020000040000fa
:04026800020500008b
:020000040000fa
:04026c000205000087
:020000040000fa
:040270000205000083
:020000040000fa
:04027400020500007f
:020000040000fa
:04027800020500007b
:020000040000fa
:04027c000205000077
:020000040000fa
:040280000205000073
:020000040000fa
:04028400020500006f
:020000040000fa
:04028800020500006b
:020000040000fa
:04028c000205000067
:020000040000fa
:040290000205000063
:020000040000fa
:04029400020500005f
:020000040000fa
:04029800020500005b
:020000040000fa
:04029c000205000057
:020000040000fa
:0402a0000205000053
:020000040000fa
:0402a400020500004f
:020000040000fa
:0402a800020500004b
:020000040000fa
:0402ac000205000047
:020000040000fa
:0402b0000205000043
:020000040000fa
:0402b400020500003f
:020000040000fa
:0402b800020500003b
:020000040000fa
:0402bc000205000037
:020000040000fa
:0402c0000205000033
:020000040000fa
:0402c400020500002f
:020000040000fa
:0402c800020500002b
:020000040000fa
:0402cc000205000027
:020000040000fa
:0402d0000205000023
:020000040000fa
:0402d400020500001f
:020000040000fa
:0402d800020500001b
:020000040000fa
:0402dc000205000017
:020000040000fa
:0402e0000205000013
:020000040000fa
:0402e400020500000f
:020000040000fa
:0402e800020500000b
:020000040000fa
:0402ec000205000007
:020000040000fa
:0402f0000205000003
:020000040000fa
:0402f40002050000ff
:020000040000fa
:0402f80002050000fb
:020000040000fa
:0402fc0002050000f7
:020000040000fa
:0403000002050000f2
:020000040000fa
:0403040002050000ee
:020000040000fa
:0403080002050000ea
:020000040000fa
:04030c0002050000e6
:020000040000fa
:0403100002050000e2
:020000040000fa
:0403140002050000de
:020000040000fa
:0403180002050000da
:020000040000fa
:04031c0002050000d6
:020000040000fa
:0403200002050000d2
:020000040000fa
:0403240002050000ce
:020000040000fa
:040328000e030000c0
:020000040000fa
:04032c004a03000080
:020000040000fa
:0403300002050000c2
:020000040000fa
:0403340002050000be
:020000040000fa
:100400004f0022000eff22000e01880000000000b5
:10041000000020000000e000020032000001200087
:100420002002880014000700780107000000e000a7
:1004300003003a00201121000100200002003700d3
:100440000000200001002000810f70000100320038
:100450000f000700000020000000e0000200320052
:100460000000020000000000401002000000000038
:100470000040da000000fe00200020000000e00044
:1004800002003200100020009001880000000600e9
:10049000a1028800800478000000eb001f003700f4
:1004a000e284440054a0b4009905ba00e2844400f8
:1004b00054a0b4009906ba00e284440054a0b400e9
:1004c0000006eb00476fde00fd07b200ae018800ba
:1004d000636ce10003003a000ad801000000eb0061
:1004e0000e003700606ce10008003a00004deb00a0
:1004f0000a05e800020039003420ec000af0a000f0
:100500008b05e900f9ff3e00040037006168e10057
:10051000010032000086eb000b00070019c7ba008b
:100520001905ba000e04e00003003a000a00e000da
:10053000dbff3a0000000600fe07b200ae028800b2
:100540008a047800f5ff37000cd0a300e20f4d00bd
:100550001c003b0089027800354dba000a05e8000e
:10056000020039003420ec000af0a0008b05e900fd
:100570000f003200254dba000a05e80002003900dc
:100580003420ec000af0a0008b05e90008003200de
:100590000c00e0000600320015cdba000a05e800a4
:1005a000020039003420ec000af0a0008b05e900bd
:1005b0008984e80054a0b4000b00e000e2ff3a0098
:1005c000000006009902ba00055d78008b05e9007d
:1005d000f7ff3200c82ade00055d78008b05e900d0
:1005e000f3ff32000c00e000f1ff320019ddba0029
:1005f000eeff3700000000000000000000000000d7
:1006000000000000000000000000000000000000ea
:100610000000000000000000000000003600f800ac
:10062000809fbe00829fbe00849fbe00869fbe004a
:100630003200f8003400f80010002000a00188000b
:100640001000200000d0fe000200fa00e1618000ee
:10065000010f7800108080000000e00003003200ed
:10066000118080001e007800010001001808a90018
:100670000080fa003400f9003200f9004f03be0098
:100680004f02be004f01be004f00be003600f90011
:10069000004006003600f800809fbe00829fbe002a
:1006a000849fbe00869fbe003200f8003400f80030
:1006b00010002000a00188001000200000d0fe00e3
:1006c0000200fa00f1618000010f780020808000b4
:1006d0000000e00003003200218080001e0078004e
:1006e000010001001828a9000080fa003400f90078
:1006f0003200f9004f03be004f02be004f01be00a2
:100700004f00be003600f900004006003600f80039
:10071000809fbe00829fbe00849fbe00869fbe0059
:100720003200f8003400f80010002000a00188001a
:100730001000200000d0fe000200fa00616080007e
:10074000010f7800308080000000e00003003200dc
:10075000318080001e007800010001000b68a900b4
:100760000080fa003400f9003200f9004f03be00a7
:100770004f02be004f01be004f00be003600f90020
:10078000004006003600f800809fbe00829fbe0039
:10079000849fbe00869fbe003200f8003400f8003f
:1007a00010002000a00188001000200000d0fe00f2
:1007b0000200fa0071608000010f78004080800024
:1007c0000000e00003003200418080001e0078003d
:1007d000010001000b88a9000080fa003400f90034
:1007e0003200f9004f03be004f02be004f01be00b1
:1007f0004f00be003600f900004006003600f80049
:10080000809fbe00829fbe00849fbe00869fbe0068
:100810000000fa00c028a9000000eb0092060700c3
:100820000080fa004f03be004f02be004f01be0021
:100830004f00be003600f900004006003600f80008
:10084000809fbe00829fbe00849fbe00869fbe0028
:100850000000fa0089060700c048a9001000200027
:10086000810607000080fa004f03be004f02be0061
:100870004f01be004f00be003600f90000400600e8
:100880003600f800809fbe00829fbe00849fbe009d
:10089000869fbe000000fa00c068a900200020006a
:1008a000710607000080fa004f03be004f02be0031
:1008b0004f01be004f00be003600f90000400600a8
:1008c0003600f800809fbe00829fbe00849fbe005d
:1008d000869fbe000000fa00c088a90030002000fa
:1008e000610607000080fa004f03be004f02be0001
:1008f0004f01be004f00be003600f9000040060068
:100900003600f800809fbe00829fbe00849fbe001c
:10091000869fbe000000fa00c608a90070002000f3
:10092000510607000080fa004f03be004f02be00d0
:100930004f01be004f00be003600f9000040060027
:100940003600f800809fbe00829fbe00849fbe00dc
:10095000869fbe000000fa002146800000102000a3
:10096000008060000000e00003003200c508a9001c
:10097000c00020003c060700204680007000600098
:100980000000e00003003200c488a900a00020009d
:100990003506070020468000610060000000e0008e
:1009a00003003200c408a900b00020002e06070092
:1009b000ffff3700811f78003200f8003400f80094
:1009c00011002000a10188001100200001d0fe00cc
:1009d0000200fa00415b8000010f78000000000077
:1009e0000000000000000000000000000f08a90047
:1009f0000080fa003400f9003200f900cf007800de
:100a0000004006000040da000000fe000000050083
:020000040000fa
:100a10000000fa0010002000e055880000002100ce
:100a200000568800f0ff2400105688004000200087
:100a300020568800c62aef00c0b620004056880025
:100a4000e034200050568800cc2aef000088a9002e
:100a5000400020007056880000102000805688005a
:100a600080b620009056880020352000a0568800cf
:100a7000d62aef000108a90040002000c0568800d7
:100a8000da2aef00c0b62000e056880020352000aa
:100a9000f0568800e02aef000248a900400020003c
:100aa000105788000090220020578800e0c02000e6
:100ab000305788002000220040578800ea2aef00c3
:100ac00002a8a900bdeaa800c40aa800ce0aa8008e
:100ad0000080fa00000006000000fa000080fa0022
:100ae000000006000000fa00004080007000600076
:100af0000000e000020032007f0507000088a90026
:100b00000080fa00000006000000fa000080fa00f1
:100b1000000006000000fa000140800000102000e4
:100b2000008060000000e00002003200790507004c
:100b30000108a9000080fa00000006000000fa0089
:100b40000080fa00000006000000fa00104080005b
:100b5000640060000000e00002003200f7ff0700c0
:100b60000248a9000080fa00000006000000fa0018
:100b70000080fa00000006000000fa00114080002a
:100b800000022000008060000000e000020032004f
:100b9000f6ff070002a8a9000080fa000000060086
:100ba0000200fa00000f78001e007800e10f5000ec
:100bb00009003200e10f500005003900e20f50003b
:100bc00007003200e30f5000070032000800370032
:100bd000c40aa80006003700ce0aa80004003700a7
:100be000d80aa80002003700e20aa80000000000ae
:100bf0000080fa00000006000200fa00000f7800f2
:100c00001e007800e10f500009003200e10f500093
:100c100005003900e20f500007003200e30f5000da
:100c20000700320008003700c40aa9000600370098
:100c3000ce0aa90004003700d80aa9000200370034
:100c4000e20aa900000000000080fa00000006008f
:100c50000400fa00000f78000e80e8000108780018
:100c60001e007800e10f50000b003200e10f500031
:100c700005003900e20f50000b003200e30f500076
:100c80000d003200100037000e80e8009000780060
:100c9000615688000c0037000e80e8009000780054
:100ca000b1568800080037000e80e80090007800f8
:100cb00001578800040037000e80e800900078009b
:100cc00051578800000000000080fa000000060074
:100cd0000200fa00000f78001e007800e10f5000bb
:100ce00009003200e10f500005003900e20f50000a
:100cf00007003200e30f5000070032000800370001
:100d00006056800007003700b056800005003700ad
:100d10000057800003003700505780000100370063
:100d20000000eb000080fa00000006000200fa005c
:100d3000000f78001e007800e10f5000090032001b
:100d4000e10f500005003900e20f500007003200ab
:100d5000e30f50000700320008003700c50aa80062
:100d600006003700cf0aa80004003700d90aa800ff
:100d700002003700e30aa800000000000080fa002b
:100d8000000006000400fa00000f78000e80e80062
:100d9000010878001e007800e10f50000b003200bf
:100da000e10f500005003900e20f50000b00320047
:100db000e30f50000d003200100037000e80e800f5
:100dc00090007800415688000c0037000e80e80043
:100dd0009000780091568800080037000e80e800e7
:100de00090007800e1568800040037000e80e8008b
:100df0009000780031578800000000000080fa0061
:100e0000000006000400fa00000f78000e80e800e1
:100e1000010878001e007800e10f50000b0032003e
:100e2000e10f500005003900e20f50000b003200c6
:100e3000e30f50000d003200100037000e80e80074
:100e400090007800515688000c0037000e80e800b2
:100e500090007800a1568800080037000e80e80056
:100e600090007800f1568800040037000e80e800fa
:100e70009000780041578800000000000080fa00d0
:100e8000000006000200fa00000f78001e00780043
:100e9000e10f500011003200e10f50000500390051
:100ea000e20f500017003200e30f50001f00320025
:100eb000280037002056800088800a0000000000cb
:100ec0000080fb0000f0a7000000ea000000ea003c
:100ed0004f00de00004078001f0037007056800091
:100ee00088800a00000000000080fb0000f0a700de
:100ef0000000ea000000ea004f00de000040780039
:100f000015003700c056800088800a0000000000ed
:100f10000080fb0000f0a7000000ea000000ea00eb
:100f20004f00de00004078000b00370010578000b3
:100f300088800a00000000000080fb0000f0a7008d
:100f40000000ea000000ea004f00de0000407800e8
:100f5000010037000040eb000080fa0000000600ae
:100f60000200fa00000f78001e007800e10f500028
:100f700011003200e10f500005003900e20f50006f
:100f800017003200e30f50001f0032002800370026
:100f900030568000ff800a00000000000080fb0047
:100fa00000f0a7000000ea000000ea004f00de00a9
:100fb000004078001f00370080568000ff800a0044
:100fc000000000000080fb0000f0a7000000ea0025
:100fd0000000ea004f00de000040780015003700f6
:100fe000d0568000ff800a00000000000080fb0057
:100ff00000f0a7000000ea000000ea004f00de0059
:10100000004078000b00370020578000ff800a0066
:10101000000000000080fb0000f0a7000000ea00d4
:101020000000ea004f00de000040780001003700b9
:101030000040eb000080fa00000006000200fa0009
:10104000000f78001e007800e10f50001100320000
:10105000e10f500005003900e20f50001700320088
:10106000e30f50001f003200280037003056800088
:1010700077800a00000000000080fb0000f0a7005d
:101080000000ea000000ea004f00de0000407800a7
:101090001f0037008056800077800a0000000000a3
:1010a0000080fb0000f0a7000000ea000000ea005a
:1010b0004f00de000040780015003700d056800059
:1010c00077800a00000000000080fb0000f0a7000d
:1010d0000000ea000000ea004f00de000040780057
:1010e0000b0037002057800077800a0000000000c6
:1010f0000080fb0000f0a7000000ea000000ea000a
:101100004f00de0000407800010037000040eb0097
:101110000080fa00000006000200fa00000f7800cc
:101120001e007800e10f500011003200e10f500066
:1011300005003900e20f500017003200e30f5000a5
:101140001f003200280037003056800066800a00f9
:10115000000000000080fb0000f0a7000000ea0093
:101160000000ea004f00de00004078001f0037005a
:101170008056800066800a00000000000080fb00ae
:1011800000f0a7000000ea000000ea004f00de00c7
:101190000040780015003700d056800066800a00b5
:1011a000000000000080fb0000f0a7000000ea0043
:1011b0000000ea004f00de00004078000b0037001e
:1011c0002057800066800a00000000000080fb00bd
:1011d00000f0a7000000ea000000ea004f00de0077
:1011e00000407800010037000040eb000080fa006a
:1011f000000006000200fa00000f78001e007800d0
:10120000e10f500011003200e10f500005003900dd
:10121000e20f500017003200e30f50001f003200b1
:10122000280037003056800055800a00000000007a
:101230000080fb0000f0a7000000ea000000ea00c8
:101240004f00de00004078001f003700805680000d
:1012500055800a00000000000080fb0000f0a7009d
:101260000000ea000000ea004f00de0000407800c5
:1012700015003700d056800055800a00000000009d
:101280000080fb0000f0a7000000ea000000ea0078
:101290004f00de00004078000b0037002057800030
:1012a00055800a00000000000080fb0000f0a7004d
:1012b0000000ea000000ea004f00de000040780075
:1012c000010037000040eb000080fa00000006003b
:1012d0000200fa00000f78001e007800e10f5000b5
:1012e00011003200e10f500005003900e20f5000fc
:1012f00017003200e30f50001f00320028003700b3
:101300003056800033800a00000000000080fb009f
:1013100000f0a7000000ea000000ea004f00de0035
:10132000004078001f0037008056800033800a009c
:10133000000000000080fb0000f0a7000000ea00b1
:101340000000ea004f00de00004078001500370082
:10135000d056800033800a00000000000080fb00af
:1013600000f0a7000000ea000000ea004f00de00e5
:10137000004078000b0037002057800033800a00bf
:10138000000000000080fb0000f0a7000000ea0061
:101390000000ea004f00de00004078000100370046
:1013a0000040eb000080fa00000006000200fa0096
:1013b000000f78001e007800e10f5000110032008d
:1013c000e10f500005003900e20f50001700320015
:1013d000e30f50001f003200280037003056800015
:1013e00044800a00000000000080fb0000f0a7001d
:1013f0000000ea000000ea004f00de000040780034
:101400001f0037008056800044800a000000000062
:101410000080fb0000f0a7000000ea000000ea00e6
:101420004f00de000040780015003700d0568000e5
:1014300044800a00000000000080fb0000f0a700cc
:101440000000ea000000ea004f00de0000407800e3
:101450000b0037002057800044800a000000000085
:101460000080fb0000f0a7000000ea000000ea0096
:101470004f00de0000407800010037000040eb0024
:101480000080fa00000006000000fa00002bef00c8
:101490000006200010588800042bef00062bef00f8
:1014a000082bef000a2bef000c2bef000e2bef00a8
:1014b000102bef00122bef00142bef00162bef0078
:1014c00030002000005988000030200010598800aa
:1014d000382bef00402bef00482bef00502bef0094
:1014e0003a2bef00422bef004a2bef00522bef007c
:1014f0003c2bef00442bef004c2bef00542bef0064
:101500003e2bef00462bef004e2bef00562bef004b
:1015100000e02900505b880010e02900705b880023
:1015200000402000905b880000402000b05b8800f5
:10153000a02bef00a42bef00a82bef00ac2bef00ab
:10154000d02bef00d22bef00d42bef00d82bef00e5
:1015500000302000b05e880000302000d05e88009f
:10156000f02bef00f22bef00022cef00a0b42000d4
:101570004b00070080b7200061000700c0b82000c2
:1015800069000700c005210071000700c0062100a6
:10159000790007001808a9003808a8001828a90031
:1015a0003828a8000b68a9002b68a8000b88a900a0
:1015b0002b88a8001160800000f02000010070005e
:1015c0001060880001eba80027000700100007004a
:1015d0001a00070040402000005c8800822bef00ca
:1015e000842bef00862bef00882bef008a2bef0077
:1015f0008c2bef008e2bef00902bef00922bef0047
:1016000010102000c05c88000080fa000000060076
:101610000000fa00000ca80000000000016080003b
:1016200000102000008060000000e000fbff32009e
:101630000a0ba8000080fa00000006000000fa0073
:10164000002ca800000000000160800000202000a5
:10165000008060000000e000fbff32000a2ba800c1
:101660000080fa00000006000000fa0000eca8006c
:101670000000000001608000000028000080600081
:101680000000e000fbff32000aeba8000080fa0037
:10169000000006000000fa000080fa0000000600ca
:1016a0000200fa00000f78001e0078000080880019
:1016b0000080fa00000006000000fa00514080009f
:1016c00000402000008060000000e00006003200c2
:1016d000008080000000e0000200320000808000f6
:1016e000000001000b48a9000080fa00000006007d
:1016f0000200fa00000f78000080fa0000000600e7
:101700000200fa00000f78001e00780010808800a8
:101710000080fa00000006000200fa00000f7800c6
:101720000080fa00000006000200fa00000f7800b6
:101730001e007800208088000080fa00000006006b
:101740000200fa00000f78000080fa000000060096
:101750000200fa00000f78001e0078003080880038
:101760000080fa00000006000200fa00000f780076
:101770000080fa00000006000200fa00000f780066
:101780001e007800408088000080fa0000000600fb
:101790000000fa0030002000001888000223ef004b
:1017a0000423ef000623ef000823ef0000012000d0
:1017b000501888000c23ef000e23ef001023ef00d9
:1017c0001223ef001423ef001623ef001823ef007d
:1017d0001a23ef001c23ef001e23ef002023ef004d
:1017e0002223ef002423ef002623ef002823ef001d
:1017f00000102000601988002e23ef003023ef0036
:10180000c00020009019880080102000a0198800d6
:1018100000082000b01988003823ef003a23ef00b9
:101820003c23ef003e23ef004023ef004223ef0074
:101830004423ef004623ef004823ef004a23ef0044
:101840004c23ef00304d2500701a88005023ef0024
:1018500000f32d00901a880050002000a01a880084
:10186000004b2000b01a880000032000c01a880036
:101870005a23ef005c23ef0000000000c0010700c6
:101880000004a2000004e000fcff3a0080082800e9
:10189000501988000080fa00000006000000fa00dd
:1018a0000080fa00000006000000fa0040408000be
:1018b000680060000000e00002003200f7ff07004f
:1018c0000868a9000080fa00000006000000fa0085
:1018d0000080fa00000006000000fa00a14080002d
:1018e00000202000008060000000e00002003200c4
:1018f000f6ff07001528a9000080fa000000060086
:101900000000fa000080fa00000006000000fa0063
:10191000a140800000402000008060000000e00046
:1019200002003200f6ff07001548a9000080fa0007
:10193000000006000000fa000080fa000000060027
:101940000000fa00a14080000080200000806000bc
:101950000000e00002003200f6ff07001568a90051
:101960000080fa00000006000000fa000080fa0083
:10197000000006000000fa00a140800000002100e5
:10198000008060000000e00002003200f6ff070067
:101990001588a9000080fa00000006000000fa0087
:1019a0000080fa00000006000000fa00a14080005c
:1019b00000002200008060000000e0000200320011
:1019c000f6ff070015a8a9000080fa000000060035
:1019d0000000fa000080fa00000006000000fa0093
:1019e000a140800000002400008060000000e000b2
:1019f00002003200f6ff070015c8a9000080fa00b7
:101a0000000006000000fa00007c80000080fa0060
:101a1000000006000200fa00faff0700000f78003d
:101a20001e007800240007000004e00002003200dd
:101a3000000028007d0007001e0078002c00070031
:101a40000004e000020032000000240077000700dc
:101a50001e007800360007000004e000020032009b
:101a600000202000710007001e00780040000700e1
:101a70000004e00002003200000820006b000700b4
:101a80001e0078004a0007000004e0000200320057
:101a900000042000650007001e00780054000700c5
:101aa0000004e00002003200000120005f00070097
:101ab0000080fa00000006000400fa008e80e800b2
:101ac000800878000040eb00004f78000e80e800ae
:101ad000100078000000e00002003d0010c0b300dc
:101ae000004f78001e4078000080fa0000000600d9
:101af0000400fa008e80e800800878000040eb00c7
:101b0000004f78000e80e80090007800000024006c
:101b1000008060000000e0000200320010c0b3004e
:101b2000004f78001e4078000080fa000000060098
:101b30000400fa008e80e800800878000040eb0086
:101b4000004f78000e80e800900078000020200010
:101b5000008060000000e0000200320010c0b3000e
:101b6000004f78001e4078000080fa000000060058
:101b70000400fa008e80e800800878000040eb0046
:101b8000004f78000e80e8009000780000082000e8
:101b9000008060000000e0000200320010c0b300ce
:101ba000004f78001e4078000080fa000000060018
:101bb0000400fa008e80e800800878000040eb0006
:101bc000004f78000e80e8009000780000042000ac
:101bd000008060000000e0000200320010c0b3008e
:101be000004f78001e4078000080fa0000000600d8
:101bf0000400fa008e80e800800878000040eb00c6
:101c0000004f78000e80e80010007800700060003f
:101c10000000e0000200320010c0b300004f780066
:101c20001e4078000080fa00000006000200fa0062
:101c3000000f78001e80ea00017c80000100600037
:101c4000007c88000080fa00000006000000fa0016
:101c5000802fef000080fa00000006000000fa006c
:101c600024000700000520000064880050052000c3
:101c700020648800a0082000306488008a2cef00cf
:101c8000f020280040648800922cef001010200003
:101c90008064880000802700a06488008c2cef00fe
:101ca00000302000706488000e0007000080fa00f9
:101cb000000006000000fa004064800077800a00ff
:101cc000000000000080fb0000f0a7000000ea0018
:101cd0000000ea004f00de00004078000080fa00bb
:101ce000000006000000fa0081eca8000080fa0065
:101cf000000006000000fa0081eca9000080fa0054
:101d0000000006000200fa00000f78001e007800b4
:101d100000407800674060000080fb0067006000c2
:101d20004300dd004264800071fc2f0081006100ef
:101d300001007000406488000080fa000000060086
:101d40000200fa00000f78009e007800716488009d
:101d50000080fa00000006000200fa00000f780080
:101d60009e007800616488000080fa000000060090
:101d70000000fa00892ca8000080fa00000006008c
:101d80000000fa00892ca9000080fa00000006007b
:101d90000200fa00000f78001e0078000040780072
:101da0006f4060000080fb006f0060008264800074
:101db00001ff2f0081006100010070008064880035
:101dc0000080fa00000006000200fa00000f780010
:101dd0001e007800004078006f4060000080fb002b
:101de0006f0060004800dd0082648000f10f2f006a
:101df0008100610001007000806488000080fa00aa
:101e0000000006000200fa00000f78001e007800b3
:101e1000004078006f4060000080fb006f006000b1
:101e20004400dd0082648000f1f02f008100610039
:101e300001007000806488000080fa000000060045
:101e40000200fa00000f78001e00780000407800c1
:101e50006f4060000080fb004c00dd008264800069
:101e6000f1ff2000810061000100700080648800a3
:101e70000080fa00000006000000fa000080fa006e
:101e8000000006000000fa0041408000000022002f
:101e9000008060000000e00002003200f6ff070052
:101ea00009a8a9000080fa00000006000000fa005e
:101eb00010002300307c8800800c2000407c8800cb
:101ec0008c2fef0020222000507c8800101028006a
:101ed000707c8800d0072000807c880010022000e1
:101ee000907c8800b82fef00ba2fef00be2fef00d4
:101ef000002def00a02fef00a42fef00a62fef0082
:101f0000a82fef00aa2fef00ae2fef00b02fef00a9
:101f1000b22fef001200200080072000a10920004e
:101f200053f8200080497800814978008249780080
:101f300012002000600420007105200043f82000fa
:101f400080497800814978008249780000000000cb
:101f5000207c8000610060000000e000fcff3a008f
:101f600000000000217c8000000220000080600052
:101f70000000e000fbff32000080fa0000000600d5
:101f80000000fa00707c8000ee800a000000000073
:101f90000080fb0000f0a7000000ea000000ea005b
:101fa0004f00de00004078000080fa0000000600cc
:101fb0000000fa00062eef00222eef003e2eef006a
:101fc0005a2eef007001200010708800d0ff23000f
:101fd000f0708800f0bf2f00d07188000080eb0007
:101fe000b07288000c2eef00282eef00442eef0078
:101ff000602eef000a2eef00262eef00422eef009b
:102000005e2eef00082eef00242eef00402eef0092
:102010005c2eef00f0012000007088005038200096
:10202000e0708800f00c2000c071880000c0220021
:10203000a07288000000eb0051052000b146880026
:10204000a10a2000b146880000688800d16c800099
:1020500000fc2f00008060007001b300d06c88008d
:102060000080200051052000b1468800a10a200010
:10207000b1468800006888000080fa000000060071
:102080000000fa005a0007000010240030568800b3
:1020900000002400805688002b68a9002b68a90046
:1020a0002f08a90000000000000000000000000050
:1020b00000000000fbff37000200fa00000f78006c
:1020c0000000000000000000000000000000000010
:1020d0000080fa00000006000200fa00000f7800fd
:1020e00000000000000000000000000000000000f0
:1020f0000080fa00000006000000fa000000000066
:102100000000000000000000000000000080fa0055
:10211000000006000000fa000000000000000000bf
:1021200000000000000000000080fa00000006002f
:102130000000fa00e143800080ff2f000080600073
:102140000000a000e0438800e1438000f0f82f0089
:10215000008060000040a000e0438800014580004e
:1021600080ff2f00008060000000a0000045880074
:1021700061438000f0ff28000080600000c0a000e4
:10218000604388007143800080ff2f000080600062
:102190000000a0007043880001458000f0f82f0087
:1021a000008060000040a000004588000080fa0028
:1021b000000006000200fa00000f780021028000f3
:1021c000200f2000008060001e00700020028800a8
:1021d0000080fa00000006000000fa00c3e8a80032
:1021e00000000000000000000080fa00000006006f
:1021f0000000fa006eff07002cff0700ccff07006d
:1022000096fe0700a0fc070061fd070000fa07002a
:10221000f1ff070000022000e6ff07000080fa003f
:0422200000000600b4
:020000040000fa
:10222400001000000a000000800000000c100000f4
:1022340020000000800000000a10000002000000de
:1022440082000000ffff00000020000002000000e8
:102254008000000002200000020000008000000056
:042264000000000076
:020000040000fa
:102268000200fa00000f78009e0078005180880074
:10227800ffff37000000fa00c00021008007780047
:1022880040022100000188000080fa0000000600da
:020000040000fa
:020000040001f9
:045e0000ffffff00a1
:020000040000fa
:020000040001f9
:045e2000ffffff0081
:020000040000fa
:020000040001f9
:045e300078ffff00f8
:020000040000fa
:020000040001f9
:045e38007fffff00e9
:020000040000fa
:020000040001f9
:045e40007f7fff0061
:020000040000fa
:020000040001f9
:045e4800ffffff0059
:020000040000fa
:020000040001f9
:045e5000deffff0072
:020000040000fa
:020000040001f9
:045e58000000ff0047
:020000040000fa
:020000040001f9
:045e60000000ff003f
:020000040000fa
:020000040001f9
:045e68000000ff0037
:020000040000fa
:020000040001f9
:045e70000000ff002f
:020000040000fa
:020000040001f9
:045e7800ffffff0029
:020000040000fa
:020000040001f9
:045e8000fffcff0024
:020000040000fa
:020000040001f9
:045e8800ffffff0019
:020000040000fa
:020000040001f9
:045ff800ffffff00a8
:020000040000fa
:020000040100f9
:04300000ffffff00cf
:00000001FF
