:020000040000fa
:080000000002040000000000f2
:020000040000fa
:0400080028030000c9
:020000040000fa
:04000c00620300008b
:020000040000fa
:040010009a0300004f
:020000040000fa
:0400140044030000a1
:020000040000fa
:040018007e03000063
:020000040000fa
:04001c00e0030000fd
:020000040000fa
:04002000b603000023
:020000040000fa
:04002400e0030000f5
:020000040000fa
:04002800e0030000f1
:020000040000fa
:04002c00fe020000d0
:020000040000fa
:04003000e0030000e9
:020000040000fa
:04003400e0030000e5
:020000040000fa
:04003800e0030000e1
:020000040000fa
:04003c00e0030000dd
:020000040000fa
:04004000e0030000d9
:020000040000fa
:04004400e0030000d5
:020000040000fa
:04004800e0030000d1
:020000040000fa
:04004c00e0030000cd
:020000040000fa
:04005000e0030000c9
:020000040000fa
:04005400e0030000c5
:020000040000fa
:04005800e0030000c1
:020000040000fa
:04005c00e0030000bd
:020000040000fa
:04006000e0030000b9
:020000040000fa
:04006400e0030000b5
:020000040000fa
:04006800e0030000b1
:020000040000fa
:04006c00e0030000ad
:020000040000fa
:04007000e0030000a9
:020000040000fa
:04007400e0030000a5
:020000040000fa
:04007800e0030000a1
:020000040000fa
:04007c00e00300009d
:020000040000fa
:04008000e003000099
:020000040000fa
:04008400e003000095
:020000040000fa
:04008800e003000091
:020000040000fa
:04008c00e00300008d
:020000040000fa
:04009000e003000089
:020000040000fa
:04009400e003000085
:020000040000fa
:04009800e003000081
:020000040000fa
:04009c00e00300007d
:020000040000fa
:0400a000e003000079
:020000040000fa
:0400a400e003000075
:020000040000fa
:0400a800e003000071
:020000040000fa
:0400ac00e00300006d
:020000040000fa
:0400b000e003000069
:020000040000fa
:0400b400e003000065
:020000040000fa
:0400b800e003000061
:020000040000fa
:0400bc00e00300005d
:020000040000fa
:0400c000e003000059
:020000040000fa
:0400c400e003000055
:020000040000fa
:0400c800e003000051
:020000040000fa
:0400cc00e00300004d
:020000040000fa
:0400d000e003000049
:020000040000fa
:0400d400e003000045
:020000040000fa
:0400d800e003000041
:020000040000fa
:0400dc00e00300003d
:020000040000fa
:0400e000e003000039
:020000040000fa
:0400e400e003000035
:020000040000fa
:0400e800e003000031
:020000040000fa
:0400ec00e00300002d
:020000040000fa
:0400f000e003000029
:020000040000fa
:0400f400e003000025
:020000040000fa
:0400f800e003000021
:020000040000fa
:0400fc00e00300001d
:020000040000fa
:04010000e003000018
:020000040000fa
:04010400e003000014
:020000040000fa
:04010800e003000010
:020000040000fa
:04010c00e00300000c
:020000040000fa
:04011000e003000008
:020000040000fa
:04011400e003000004
:020000040000fa
:04011800e003000000
:020000040000fa
:04011c00e0030000fc
:020000040000fa
:04012000e0030000f8
:020000040000fa
:04012400e0030000f4
:020000040000fa
:04012800e0030000f0
:020000040000fa
:04012c00e0030000ec
:020000040000fa
:04013000e0030000e8
:020000040000fa
:04013400e0030000e4
:020000040000fa
:04013800e0030000e0
:020000040000fa
:04013c00e0030000dc
:020000040000fa
:04014000e0030000d8
:020000040000fa
:04014400e0030000d4
:020000040000fa
:04014800e0030000d0
:020000040000fa
:04014c00e0030000cc
:020000040000fa
:04015000e0030000c8
:020000040000fa
:04015400e0030000c4
:020000040000fa
:04015800e0030000c0
:020000040000fa
:04015c00e0030000bc
:020000040000fa
:04016000e0030000b8
:020000040000fa
:04016400e0030000b4
:020000040000fa
:04016800e0030000b0
:020000040000fa
:04016c00e0030000ac
:020000040000fa
:04017000e0030000a8
:020000040000fa
:04017400e0030000a4
:020000040000fa
:04017800e0030000a0
:020000040000fa
:04017c00e00300009c
:020000040000fa
:04018000e003000098
:020000040000fa
:04018400e003000094
:020000040000fa
:04018800e003000090
:020000040000fa
:04018c00e00300008c
:020000040000fa
:04019000e003000088
:020000040000fa
:04019400e003000084
:020000040000fa
:04019800e003000080
:020000040000fa
:04019c00e00300007c
:020000040000fa
:0401a000e003000078
:020000040000fa
:0401a400e003000074
:020000040000fa
:0401a800e003000070
:020000040000fa
:0401ac00e00300006c
:020000040000fa
:0401b000e003000068
:020000040000fa
:0401b400e003000064
:020000040000fa
:0401b800e003000060
:020000040000fa
:0401bc00e00300005c
:020000040000fa
:0401c000e003000058
:020000040000fa
:0401c400e003000054
:020000040000fa
:0401c800e003000050
:020000040000fa
:0401cc00e00300004c
:020000040000fa
:0401d000e003000048
:020000040000fa
:0401d400e003000044
:020000040000fa
:0401d800e003000040
:020000040000fa
:0401dc00e00300003c
:020000040000fa
:0401e000e003000038
:020000040000fa
:0401e400e003000034
:020000040000fa
:0401e800e003000030
:020000040000fa
:0401ec00e00300002c
:020000040000fa
:0401f000e003000028
:020000040000fa
:0401f400e003000024
:020000040000fa
:0401f800e003000020
:020000040000fa
:0401fc00e00300001c
:020000040000fa
:04020000e003000017
:020000040000fa
:04020400e003000013
:020000040000fa
:04020800e00300000f
:020000040000fa
:04020c00e00300000b
:020000040000fa
:04021000e003000007
:020000040000fa
:04021400e003000003
:020000040000fa
:04021800e0030000ff
:020000040000fa
:04021c00e0030000fb
:020000040000fa
:04022000e0030000f7
:020000040000fa
:04022400e0030000f3
:020000040000fa
:04022800e0030000ef
:020000040000fa
:04022c00e0030000eb
:020000040000fa
:04023000e0030000e7
:020000040000fa
:04023400e0030000e3
:020000040000fa
:04023800e0030000df
:020000040000fa
:04023c00e0030000db
:020000040000fa
:04024000e0030000d7
:020000040000fa
:04024400e0030000d3
:020000040000fa
:04024800e0030000cf
:020000040000fa
:04024c00e0030000cb
:020000040000fa
:04025000e0030000c7
:020000040000fa
:04025400e0030000c3
:020000040000fa
:04025800e0030000bf
:020000040000fa
:04025c00e0030000bb
:020000040000fa
:04026000e0030000b7
:020000040000fa
:04026400e0030000b3
:020000040000fa
:04026800e0030000af
:020000040000fa
:04026c00e0030000ab
:020000040000fa
:04027000e0030000a7
:020000040000fa
:04027400e0030000a3
:020000040000fa
:04027800e00300009f
:020000040000fa
:04027c00e00300009b
:020000040000fa
:04028000e003000097
:020000040000fa
:04028400e003000093
:020000040000fa
:04028800e00300008f
:020000040000fa
:04028c00e00300008b
:020000040000fa
:04029000e003000087
:020000040000fa
:04029400e003000083
:020000040000fa
:04029800e00300007f
:020000040000fa
:04029c00e00300007b
:020000040000fa
:0402a000e003000077
:020000040000fa
:0402a400e003000073
:020000040000fa
:0402a800e00300006f
:020000040000fa
:0402ac00e00300006b
:020000040000fa
:0402b000e003000067
:020000040000fa
:0402b400e003000063
:020000040000fa
:0402b800e00300005f
:020000040000fa
:0402bc00e00300005b
:020000040000fa
:0402c000e003000057
:020000040000fa
:0402c400e003000053
:020000040000fa
:0402c800e00300004f
:020000040000fa
:0402cc00e00300004b
:020000040000fa
:0402d000e003000047
:020000040000fa
:0402d400e003000043
:020000040000fa
:0402d800e00300003f
:020000040000fa
:0402dc00e00300003b
:020000040000fa
:0402e000e003000037
:020000040000fa
:0402e400e003000033
:020000040000fa
:0402e800e00300002f
:020000040000fa
:0402ec00e00300002b
:020000040000fa
:0402f000e003000027
:020000040000fa
:0402f400e003000023
:020000040000fa
:0402f800e00300001f
:020000040000fa
:0402fc00e00300001b
:020000040000fa
:04030000e003000016
:020000040000fa
:04030400e003000012
:020000040000fa
:04030800e00300000e
:020000040000fa
:04030c00e00300000a
:020000040000fa
:04031000e003000006
:020000040000fa
:04031400e003000002
:020000040000fa
:04031800e0030000fe
:020000040000fa
:04031c00e0030000fa
:020000040000fa
:04032000e0030000f6
:020000040000fa
:04032400e0030000f2
:020000040000fa
:04032800e0030000ee
:020000040000fa
:04032c00e0030000ea
:020000040000fa
:04033000e0030000e6
:020000040000fa
:04033400e0030000e2
:020000040000fa
:10040000ef2021000eff24000e01880000000000f4
:10041000000020000000e000020032000001200087
:100420002002880014000700e70007000000e00039
:1004300003003a00c06420000100200002003700e1
:100440000000200001002000810f70000100320038
:100450000f000700000020000000e0000200320052
:1004600000000200000000001e0402000000000066
:100470000040da000000fe00200020000000e00044
:1004800002003200100020009001880000000600e9
:10049000a1028800800478000000eb001f003700f4
:1004a000e284440054a0b4009905ba00e2844400f8
:1004b00054a0b4009906ba00e284440054a0b400e9
:1004c0000006eb00476fde00fd07b200ae018800ba
:1004d000636ce10003003a000ad801000000eb0061
:1004e0000e003700606ce10008003a00004deb00a0
:1004f0000a05e800020039003420ec000af0a000f0
:100500008b05e900f9ff3e00040037006168e10057
:10051000010032000086eb000b00070019c7ba008b
:100520001905ba000e04e00003003a000a00e000da
:10053000dbff3a0000000600fe07b200ae028800b2
:100540008a047800f5ff37000cd0a300e20f4d00bd
:100550001c003b0089027800354dba000a05e8000e
:10056000020039003420ec000af0a0008b05e900fd
:100570000f003200254dba000a05e80002003900dc
:100580003420ec000af0a0008b05e90008003200de
:100590000c00e0000600320015cdba000a05e800a4
:1005a000020039003420ec000af0a0008b05e900bd
:1005b0008984e80054a0b4000b00e000e2ff3a0098
:1005c000000006009902ba00055d78008b05e9007d
:1005d000f7ff3200c82ade00055d78008b05e900d0
:1005e000f3ff32000c00e000f1ff320019ddba0029
:1005f000eeff3700e6030400000000003600f800bc
:10060000809fbe00829fbe00849fbe00869fbe006a
:10061000508080000000e000010032000000010076
:10062000102225001048e80011c0b3000022250068
:10063000014878000028a9004f03be004f02be0009
:100640004f01be004f00be003600f900004006001a
:100650003600f800809fbe00829fbe00849fbe00cf
:10066000869fbe00c028a9000000eb00c60107005d
:100670004f03be004f02be004f01be004f00be0040
:100680003600f900004006003600f800809fbe00ea
:10069000829fbe00849fbe00869fbe00b5010700fa
:1006a000c048a90010002000b70107004f03be009a
:1006b0004f02be004f01be004f00be003600f900e1
:1006c000004006003600f800809fbe00829fbe00fa
:1006d000849fbe00869fbe00c068a9002000200045
:1006e000a90107004f03be004f02be004f01be002c
:1006f0004f00be003600f900004006003600f8004a
:10070000809fbe00829fbe00849fbe00869fbe0069
:10071000c088a900300020009b0107004f03be00e5
:100720004f02be004f01be004f00be003600f90070
:10073000004006003600f800809fbe00829fbe0089
:10074000849fbe00869fbe00c608a90070002000de
:100750008d0107004f03be004f02be004f01be00d7
:100760004f00be003600f900004006003600f800d9
:10077000809fbe00829fbe00849fbe00869fbe00f9
:10078000c508ab0003003200c508a900c000200066
:100790007d010700c488ab0003003200c488a900b3
:1007a000a000200078010700c408ab00030032005d
:1007b000c408a900b000200073010700ffff370044
:0c07c0000040da000000fe000000050010
:020000040000fa
:1007cc002201070010718000ff800a000000000069
:1007dc000004a2000080fb004f00dd0011718000be
:1007ec0001f0a1008100700011718800000006006a
:1007fc0001e0fe00e80021000a0025004410c300bf
:10080c00babf9f00c8bf9f002d808800a8bf9f0063
:10081c009abf9f004610c000088088001a8088008c
:10082c00358088004480880000e0fe00000006004f
:10083c00889fbe0036010700c3e8a9000000000035
:10084c00000000004400a800f0ff2c004400b6009b
:10085c0000c0a000200288004420a8000001200055
:10086c0040088800c3e8a800000000000000000059
:10087c00c2002100e1ff24000000eb000310200067
:10088c0000297800802878000000e800830f5000d1
:10089c00fbff3a00d6ff0700e400070008e2240043
:1008ac00090020000800be0021010700eea00a008c
:1008bc00220e00000004a200610060004e00dd006a
:1008cc001171800001e0a10081007000117188009d
:1008dc00c3e8a900000000000000000000000000b8
:1008ec0000000000d900070000000000000000001c
:1008fc00c3e8a80000000000000000000000000099
:10090c0000000000e7ff37004f00de00000006008b
:10091c0001002400010060000000ea004f00de002e
:10092c000000060099800a0000000000000006008c
:10093c0077800a00000000000000060066800a00b4
:10094c00000000000000060044800a0000000000c7
:10095c00000006000080ea00800fb600007c8800d2
:10096c0000000600007c800000000600881f780054
:10097c00fcff07000004780008007800e2ff070085
:10098c000004e0000200320000002800f1ff070024
:10099c0008007800deff07000004e00002003200cf
:1009ac0000002400ebff070008007800ddff0700c3
:1009bc000004e0000200320000202000e5ff0700e8
:1009cc0008007800daff07000004e00002003200a3
:1009dc0000082000dfff070008007800d7ff0700a1
:1009ec000004e0000200320000042000d9ff0700e0
:1009fc0008007800d4ff07000004e0000200320079
:100a0c0000012000d3ff07004f047800000006000f
:100a1c00802fef0000000600000006004008880050
:100a2c00002225000048eb00000006004008800072
:100a3c000000060020088800002225000048eb007a
:100a4c000000060020088000000006002028a900f5
:100a5c00508088002028a800000006000421ef0028
:100a6c00c0072000400888002032280000088800b9
:100a7c000a10e20002003a00603e2000f3ff07007b
:100a8c000028a9002028a800002225000048eb001f
:100a9c0000000600002225000048eb002028a800da
:100aac0001e1a8000000060001e1a9002028a9002e
:100abc000000060000222500104078000004e00031
:100acc0002003200012225008048eb0000000600e5
:100adc00102225001080fb000000060010222500cb
:100aec000048eb000000060010002300307c88005a
:100afc00800c2000407c88008c2fef00200220000e
:100b0c00507c880010102800707c8800d0072000d2
:100b1c00807c880010022000907c88009a2fef00c7
:100b2c00b82fef00ba2fef00be2fef00002def0013
:100b3c00a02fef00a42fef00a62fef00a82fef009f
:100b4c00aa2fef00ae2fef00b02fef00b22fef0067
:100b5c0010002000a20920008107200053f820007b
:100b6c00814978008249780080497800720520001c
:100b7c006104200043f82000814978008249780004
:100b8c0080497800840fab00feff3a000102200080
:100b9c00227c800002806000fdff32000000060015
:100bac00eea00a008e0f000000000600062eef00db
:100bbc00222eef003e2eef005a2eef00f001200007
:100bcc0010708800d1ff2100f1708800f1ff230024
:100bdc00d171880021502200b17288000c2eef00d8
:100bec00282eef00442eef00602eef000a2eef00af
:100bfc00262eef00422eef005e2eef00082eef00a7
:100c0c00242eef00402eef005c2eef0000708800c9
:100c1c00d0092000e0708800f00c2000c071880022
:100c2c0000402200a07288000000060001e0fe00d7
:100c3c00e90021000b0025006612c3006606c70000
:100c4c006612c00000e0fe000000060001e0fe009d
:100c5c00e90021000b0025006606c7006612c000e3
:100c6c006612c0006612c0006612c0006612c00098
:100c7c006612c0006612c0006612c0006612c00088
:0c0c8c006612c00000e0fe000000060040
:020000040000fa
:100c98002052000002000000800000000a1000003e
:100ca8000200000080000000005200002000000048
:100cb800800000000c10000002000000820000000c
:100cc800ffff00000e10000000020000800000007e
:100cd800005000000002000080000000001000002a
:0c0ce8000a000000800000000000000076
:020000040000fa
:100cf400210f20002202800082806000808070002a
:100d04002102880000000600c3e8a80000000000db
:100d14000000000000000600a6ff070074ff0700a3
:100d24001a0007004fff0700f7ff0700000220002a
:080d3400efff070000000600bc
:020000040000fa
:100d3c00f03fb1000180b10006003500ee03090060
:100d4c0000000000403fb1000180b100fbff3d00fe
:100d5c001000b000203fb0000200350000800900f8
:080d6c00000000000000060079
:020000040000fa
:100d740000202500800778008021250000018800dc
:100d84000000060060808800ffff3700f0f82f00a5
:100d94004008b6000040a0000042880000000600a1
:020000040000fa
:020000040005f5
:047e0000ffffff0081
:020000040000fa
:020000040005f5
:047e2000ffffff0061
:020000040000fa
:020000040005f5
:047e300078ffff00d8
:020000040000fa
:020000040005f5
:047e38007fffff00c9
:020000040000fa
:020000040005f5
:047e40007f7fff0041
:020000040000fa
:020000040005f5
:047e4800ffffff0039
:020000040000fa
:020000040005f5
:047e5000deffff0052
:020000040000fa
:020000040005f5
:047e58000000ff0027
:020000040000fa
:020000040005f5
:047e60000000ff001f
:020000040000fa
:020000040005f5
:047e68000000ff0017
:020000040000fa
:020000040005f5
:047e70000000ff000f
:020000040000fa
:020000040005f5
:047e7800ffffff0009
:020000040000fa
:020000040005f5
:047e8000fffcff0004
:020000040000fa
:020000040005f5
:047e8800ffffff00f9
:020000040000fa
:020000040005f5
:047ff800ffffff0088
:020000040000fa
:020000040100f9
:04300000ffffff00cf
:00000001FF
