:020000040000fa
:080000000002040000000000f2
:020000040000fa
:04000800d803000019
:020000040000fa
:04000c001a040000d2
:020000040000fa
:040010005a0400008e
:020000040000fa
:04001400f8030000ed
:020000040000fa
:040018003a040000a6
:020000040000fa
:04001c00fa040000e2
:020000040000fa
:040020007a0400005e
:020000040000fa
:04002400fa040000da
:020000040000fa
:04002800fa040000d6
:020000040000fa
:04002c00c404000008
:020000040000fa
:04003000fa040000ce
:020000040000fa
:040034009e03000027
:020000040000fa
:04003800fa040000c6
:020000040000fa
:04003c00fa040000c2
:020000040000fa
:04004000fa040000be
:020000040000fa
:04004400fa040000ba
:020000040000fa
:04004800fa040000b6
:020000040000fa
:04004c00fa040000b2
:020000040000fa
:04005000fa040000ae
:020000040000fa
:04005400fa040000aa
:020000040000fa
:04005800fa040000a6
:020000040000fa
:04005c00fa040000a2
:020000040000fa
:04006000fa0400009e
:020000040000fa
:04006400fa0400009a
:020000040000fa
:04006800fa04000096
:020000040000fa
:04006c00fa04000092
:020000040000fa
:04007000fa0400008e
:020000040000fa
:04007400fa0400008a
:020000040000fa
:04007800fa04000086
:020000040000fa
:04007c00fa04000082
:020000040000fa
:04008000fa0400007e
:020000040000fa
:04008400fa0400007a
:020000040000fa
:04008800fa04000076
:020000040000fa
:04008c00fa04000072
:020000040000fa
:04009000fa0400006e
:020000040000fa
:04009400fa0400006a
:020000040000fa
:04009800fa04000066
:020000040000fa
:04009c00fa04000062
:020000040000fa
:0400a000fa0400005e
:020000040000fa
:0400a400fa0400005a
:020000040000fa
:0400a800fa04000056
:020000040000fa
:0400ac00fa04000052
:020000040000fa
:0400b000fa0400004e
:020000040000fa
:0400b400fa0400004a
:020000040000fa
:0400b800fa04000046
:020000040000fa
:0400bc00fa04000042
:020000040000fa
:0400c000fa0400003e
:020000040000fa
:0400c400fa0400003a
:020000040000fa
:0400c800fa04000036
:020000040000fa
:0400cc00fa04000032
:020000040000fa
:0400d000fa0400002e
:020000040000fa
:0400d400fa0400002a
:020000040000fa
:0400d800fa04000026
:020000040000fa
:0400dc00fa04000022
:020000040000fa
:0400e000fa0400001e
:020000040000fa
:0400e400fa0400001a
:020000040000fa
:0400e800fa04000016
:020000040000fa
:0400ec00fa04000012
:020000040000fa
:0400f000fa0400000e
:020000040000fa
:0400f400fa0400000a
:020000040000fa
:0400f800fa04000006
:020000040000fa
:0400fc00fa04000002
:020000040000fa
:04010000fa040000fd
:020000040000fa
:04010400fa040000f9
:020000040000fa
:04010800fa040000f5
:020000040000fa
:04010c00fa040000f1
:020000040000fa
:04011000fa040000ed
:020000040000fa
:04011400fa040000e9
:020000040000fa
:04011800fa040000e5
:020000040000fa
:04011c00fa040000e1
:020000040000fa
:04012000fa040000dd
:020000040000fa
:04012400fa040000d9
:020000040000fa
:04012800fa040000d5
:020000040000fa
:04012c00fa040000d1
:020000040000fa
:04013000fa040000cd
:020000040000fa
:04013400fa040000c9
:020000040000fa
:04013800fa040000c5
:020000040000fa
:04013c00fa040000c1
:020000040000fa
:04014000fa040000bd
:020000040000fa
:04014400fa040000b9
:020000040000fa
:04014800fa040000b5
:020000040000fa
:04014c00fa040000b1
:020000040000fa
:04015000fa040000ad
:020000040000fa
:04015400fa040000a9
:020000040000fa
:04015800fa040000a5
:020000040000fa
:04015c00fa040000a1
:020000040000fa
:04016000fa0400009d
:020000040000fa
:04016400fa04000099
:020000040000fa
:04016800fa04000095
:020000040000fa
:04016c00fa04000091
:020000040000fa
:04017000fa0400008d
:020000040000fa
:04017400fa04000089
:020000040000fa
:04017800fa04000085
:020000040000fa
:04017c00fa04000081
:020000040000fa
:04018000fa0400007d
:020000040000fa
:04018400fa04000079
:020000040000fa
:04018800fa04000075
:020000040000fa
:04018c00fa04000071
:020000040000fa
:04019000fa0400006d
:020000040000fa
:04019400fa04000069
:020000040000fa
:04019800fa04000065
:020000040000fa
:04019c00fa04000061
:020000040000fa
:0401a000fa0400005d
:020000040000fa
:0401a400fa04000059
:020000040000fa
:0401a800fa04000055
:020000040000fa
:0401ac00fa04000051
:020000040000fa
:0401b000fa0400004d
:020000040000fa
:0401b400fa04000049
:020000040000fa
:0401b800fa04000045
:020000040000fa
:0401bc00fa04000041
:020000040000fa
:0401c000fa0400003d
:020000040000fa
:0401c400fa04000039
:020000040000fa
:0401c800fa04000035
:020000040000fa
:0401cc00fa04000031
:020000040000fa
:0401d000fa0400002d
:020000040000fa
:0401d400fa04000029
:020000040000fa
:0401d800fa04000025
:020000040000fa
:0401dc00fa04000021
:020000040000fa
:0401e000fa0400001d
:020000040000fa
:0401e400fa04000019
:020000040000fa
:0401e800fa04000015
:020000040000fa
:0401ec00fa04000011
:020000040000fa
:0401f000fa0400000d
:020000040000fa
:0401f400fa04000009
:020000040000fa
:0401f800fa04000005
:020000040000fa
:0401fc00fa04000001
:020000040000fa
:04020000fa040000fc
:020000040000fa
:04020400fa040000f8
:020000040000fa
:04020800fa040000f4
:020000040000fa
:04020c00fa040000f0
:020000040000fa
:04021000fa040000ec
:020000040000fa
:04021400fa040000e8
:020000040000fa
:04021800fa040000e4
:020000040000fa
:04021c00fa040000e0
:020000040000fa
:04022000fa040000dc
:020000040000fa
:04022400fa040000d8
:020000040000fa
:04022800fa040000d4
:020000040000fa
:04022c00fa040000d0
:020000040000fa
:04023000fa040000cc
:020000040000fa
:04023400fa040000c8
:020000040000fa
:04023800fa040000c4
:020000040000fa
:04023c00fa040000c0
:020000040000fa
:04024000fa040000bc
:020000040000fa
:04024400fa040000b8
:020000040000fa
:04024800fa040000b4
:020000040000fa
:04024c00fa040000b0
:020000040000fa
:04025000fa040000ac
:020000040000fa
:04025400fa040000a8
:020000040000fa
:04025800fa040000a4
:020000040000fa
:04025c00fa040000a0
:020000040000fa
:04026000fa0400009c
:020000040000fa
:04026400fa04000098
:020000040000fa
:04026800fa04000094
:020000040000fa
:04026c00fa04000090
:020000040000fa
:04027000fa0400008c
:020000040000fa
:04027400fa04000088
:020000040000fa
:04027800fa04000084
:020000040000fa
:04027c00fa04000080
:020000040000fa
:04028000fa0400007c
:020000040000fa
:04028400fa04000078
:020000040000fa
:04028800fa04000074
:020000040000fa
:04028c00fa04000070
:020000040000fa
:04029000fa0400006c
:020000040000fa
:04029400fa04000068
:020000040000fa
:04029800fa04000064
:020000040000fa
:04029c00fa04000060
:020000040000fa
:0402a000fa0400005c
:020000040000fa
:0402a400fa04000058
:020000040000fa
:0402a800fa04000054
:020000040000fa
:0402ac00fa04000050
:020000040000fa
:0402b000fa0400004c
:020000040000fa
:0402b400fa04000048
:020000040000fa
:0402b800fa04000044
:020000040000fa
:0402bc00fa04000040
:020000040000fa
:0402c000fa0400003c
:020000040000fa
:0402c400fa04000038
:020000040000fa
:0402c800fa04000034
:020000040000fa
:0402cc00fa04000030
:020000040000fa
:0402d000fa0400002c
:020000040000fa
:0402d400fa04000028
:020000040000fa
:0402d800fa04000024
:020000040000fa
:0402dc00fa04000020
:020000040000fa
:0402e000fa0400001c
:020000040000fa
:0402e400fa04000018
:020000040000fa
:0402e800fa04000014
:020000040000fa
:0402ec00fa04000010
:020000040000fa
:0402f000fa0400000c
:020000040000fa
:0402f400fa04000008
:020000040000fa
:0402f800fa04000004
:020000040000fa
:0402fc00fa04000000
:020000040000fa
:04030000fa040000fb
:020000040000fa
:04030400fa040000f7
:020000040000fa
:04030800fa040000f3
:020000040000fa
:04030c00fa040000ef
:020000040000fa
:04031000fa040000eb
:020000040000fa
:04031400fa040000e7
:020000040000fa
:04031800fa040000e3
:020000040000fa
:04031c00fa040000df
:020000040000fa
:04032000fa040000db
:020000040000fa
:100400000f0321000eff2c000e01880000002000c9
:100410000000e000020032000001200020028800fd
:1004200014000700750107000000e00003003a0017
:1004300060b9200001002000020037000000200009
:1004400001002000810f70004220ae000f00070065
:10045000000020000000e0004220ae00000002008a
:1004600000000000f2060200000000000040da0078
:100470000000fe00200020000000e000020032002a
:10048000100020009001880000000600a1028800f2
:10049000800478000000eb001f003700e284440075
:1004a00054a0b4009905ba00e284440054a0b400fa
:1004b0009906ba00e284440054a0b4000006eb00a0
:1004c000476fde00fd07b200ae018800636ce100fb
:1004d00003003a000ad801000000eb000e003700cc
:1004e000606ce10008003a00004deb000a05e800ee
:1004f000020039003420ec000af0a0008b05e9006e
:10050000f9ff3e00040037006168e100010032009d
:100510000086eb000b00070019c7ba001905ba00e6
:100520000e04e00003003a000a00e000dbff3a009e
:1005300000000600fe07b200ae0288008a047800c0
:10054000f5ff37000cd0a300e20f4d001c0039006e
:1005500089027800354dba000a05e800020039002a
:100560003420ec000af0a0008b05e9000f003200f7
:10057000254dba000a05e800020039003420ec00dd
:100580000af0a0008b05e900080032000c00e00032
:100590000600320015cdba000a05e8000200390055
:1005a0003420ec000af0a0008b05e9008984e80003
:1005b00054a0b4000b00e000e2ff3a000000060087
:1005c0009902ba00055d78008b05e900f7ff32005b
:1005d000c82ade00055d78008b05e900f3ff3200d4
:1005e0000c00e000f1ff320019ddba00eeff370029
:1005f0006100e10001003200100005005400f80025
:1006000020102000a002880000f92b001000ba0082
:100610005400f9000700260000f0a6008703d1006f
:100620000703780001c4fe000003eb000120200056
:1006300091018800c1c02800111303008703e9005d
:10064000fdff3a0000f0a7000000050000f0a00048
:1006500080c4fe0086037800f3ff37000408200002
:10066000010037000002eb006100e10001003200f0
:10067000100005003200f8003400f8008102780014
:10068000930188003200be000100e0000c0032003f
:100690000470a70000f0a00032037800c733de002a
:1006a000848343004220af008703e800a70188004d
:1006b000f607b2007f30e100040032002000200085
:1006c0003400f9003200f900000006008100e90062
:1006d0000500e00003003a00018009003210030029
:1006e000e8ff37000180090032900300d561ae00b9
:1006f000e4ff370030002000f1ff370050052000f4
:10070000b00e8800a00a2000b00e8800d3e1a80037
:100710000000060050052000b00e8800a00a20004e
:10072000b00e8800d3e1a900000006004e070400c7
:10073000000000002e070400000000003600f80052
:10074000809fbe00829fbe00849fbe00869fbe0029
:100750000000fa0000408000680060000000e00037
:100760000c003200917180000000220000806000c7
:100770000000e00006003200408080000000e00041
:1007800002003200408080000000010033aea9006a
:100790000068a9000080fa004f03be004f02be00af
:1007a0004f01be004f00be003600f90000400600b9
:1007b0003600f800809fbe00829fbe00849fbe006e
:1007c000869fbe000000fa00c028a9000000eb00d0
:1007d000050407000080fa004f03be004f02be0070
:1007e0004f01be004f00be003600f9000040060079
:1007f0003600f800809fbe00829fbe00849fbe002e
:10080000869fbe000000fa00fc030700c048a90054
:1008100010002000f40307000080fa004f03be0020
:100820004f02be004f01be004f00be003600f9006f
:10083000004006003600f800809fbe00829fbe0088
:10084000849fbe00869fbe000000fa00c068a90019
:1008500020002000e40307000080fa004f03be00e0
:100860004f02be004f01be004f00be003600f9002f
:10087000004006003600f800809fbe00829fbe0048
:10088000849fbe00869fbe000000fa00c088a900b9
:1008900030002000d40307000080fa004f03be00a0
:1008a0004f02be004f01be004f00be003600f900ef
:1008b000004006003600f800809fbe00829fbe0008
:1008c000849fbe00869fbe000000fa00c608a900f3
:1008d00070002000c40307000080fa004f03be0030
:1008e0004f02be004f01be004f00be003600f900af
:1008f000004006003600f800809fbe00829fbe00c8
:10090000849fbe00869fbe000000fa002146800042
:1009100000102000008060000000e00003003200b2
:10092000c508a900c0002000af03070021468000d1
:1009300000022000008060000000e00003003200a0
:10094000c4a8a90090002000a7030700204680004b
:10095000700060000000e00003003200c488a900bd
:10096000a0002000a0030700204680006100600076
:100970000000e00003003200c408a900b00020001d
:1009800099030700ffff37003600f800809fbe0084
:10099000829fbe00849fbe00869fbe000000fa00ba
:1009a000608080000000e000020032006080800073
:1009b00000000100f0022100104078008040e800b3
:1009c000f002210001487800e002210011c0b300cc
:1009d000014878000028a9000080fa004f03be00fb
:1009e0004f02be004f01be004f00be003600f900ae
:1009f000004006000040da000000fe000000050094
:020000040000fa
:100a00000600fa0010079800210798001e019000c8
:100a1000ae01900000002000f107200002027800e3
:100a20000301780080017800010078000302620071
:100a3000000061008000eb00c000dd00000020002d
:100a40000001be006120b8000001710081817100c9
:100a50004018de000100200000007800a00288009d
:100a60001e009000800078000100a100010f7800b6
:100a70001e0078001000ba00008088001e00780078
:100a80001080ba00108088000000eb000080fa009f
:100a9000000006000200fa004000240080468800a2
:100aa00010468000000f7800c3e8a9005005200020
:100ab000b0468800a00a2000b0468800d1e8a8000f
:100ac00000000000000000000000000081468000df
:100ad00000002800008060000000e000fbff3a00fa
:100ae0001e007800104688000000eb000080fa002d
:100af000000006000c00fa0030079800420798003a
:100b0000530798004e009000800078000100a1007b
:100b1000010f78004e009000de0090004008de00db
:100b2000100798001000240080468800a00f2000c5
:100b3000a00288001e007800904688001e009000e9
:100b4000a04688003e009000900078000000eb0076
:100b50000108bb003e0090000080e8009000780093
:100b60000000eb000188bb003e00900064004000e4
:100b700090007800200020000108bb003e0090009b
:100b80006600400090007800200020000188bb0033
:100b90001046800020079800c3e8a90050052000f7
:100ba000b0468800a00a2000b0468800d1e8a8001e
:100bb00000000000000000002e0090001046880099
:100bc00000000000814680000000280000806000d6
:100bd0000000e000fbff3a000000eb000080fa009c
:100be000000006000e00fa00400798005107980028
:100bf000620798000000eb00000f78001c0037002f
:100c00001e00780000004000100798001e009000b1
:100c10006101b8004e009000de009000020040002c
:100c20008380480020079800310798002e0090002c
:100c3000be00900072ff07001e0090000000400000
:100c4000ee009000008040000180800001087800e4
:100c50001e0090000000e80000004000ee00900040
:100c60000080400011808000010878001e0fe8001d
:100c7000f00720009e007800808f5000e0ff3600d3
:100c80000000eb000080fa00000006000a00fa00f5
:100c90002007980031079800420798000000eb00f9
:100ca000000f7800110037001e0078004200dd00c0
:100cb000100798001e0090006101b8002e009000ff
:100cc000be00900002004000838048001e0190009a
:100cd00002014100ce019000028241000001be00ed
:100ce0000400780083ff07001e0fe800f0032000d7
:100cf0009e007800808f5000ebff36000000eb0074
:100d00000080fa00000006004204fa00e2432000de
:100d1000020147000089be005eff0700002220009c
:100d20000e004000e14320008100470000017800f0
:100d30001100be00abff0700e043200000014700a8
:100d4000000020000104200032024000a28248007e
:100d50000400be00022220000e014100cbff07006c
:100d6000e0432000000147000000200001042000b3
:100d700032024000a28248000400be000e81e8005a
:100d800098ff07000000eb00000f78000e0037000e
:100d90001e007800000040000080e800ee007800af
:100da000022220001e0078000000400000004100e8
:100db0006e007800808f500002003200100020008a
:100dc000308088001e0fe800f00f20009e007800a1
:100dd000808f5000eeff34000000eb000080fa002e
:100de000000006000400fa0000202000010020009e
:100df000008fbe004202070000000000000000005b
:100e0000c3e8a900f0718000aa800a000000000079
:100e10000004a200614060000080fb0061006000ef
:100e20004a00dd00f171800001a0a1000100700006
:100e3000f0718800c3e8a800208080000000e00076
:100e4000030032001e00be00afff07000430ef00b9
:100e50000000000000000000e7ff37000000fa007b
:100e6000308080000000e000020032003f6ea900e8
:100e700008003700f17180000080200000806000d1
:100e80000000e000020032003f6ea90001003700c0
:100e90003f6ea8000080fa00000006000000fa0083
:100ea0000000000000742700b10120003302070099
:100eb00001718000000022000080600000f0a700a7
:100ec0000000ea000000e9004f00de0020808800fa
:100ed000000000000080fa00000006000000fa0098
:100ee00030002000001888000223ef000423ef00e8
:100ef0000623ef000823ef000001200050188800af
:100f00000c23ef000e23ef001023ef001223ef005d
:100f10001423ef001623ef001823ef001a23ef002d
:100f20001c23ef001e23ef002023ef002223ef00fd
:100f30002423ef002623ef002823ef002c23ef00cb
:100f40002e23ef003023ef00c0002000901988000e
:100f50003423ef003623ef003823ef003a23ef006d
:100f60003c23ef003e23ef004023ef004223ef003d
:100f70004423ef004623ef004823ef004a23ef000d
:100f80004c23ef0000e12000701a88005023ef008e
:100f900080f32100901a88005423ef005623ef00bd
:100fa0005823ef005a23ef005c23ef0000000000fd
:100fb0007c0107000004a2000004e000fcff3a00ee
:100fc00080082800501988000080fa000000060000
:100fd0000000fa000080fa00000006000000fa009d
:100fe00040408000680060000000e0000200320025
:100ff000f7ff07000868a9000080fa00000006005b
:101000000000fa000080fa00000006000000fa006c
:10101000a140800000202000008060000000e0006f
:1010200002003200f6ff07001528a9000080fa0030
:10103000000006000000fa000080fa000000060030
:101040000000fa00a1408000004020000080600005
:101050000000e00002003200f6ff07001548a9007a
:101060000080fa00000006000000fa000080fa008c
:10107000000006000000fa00a1408000008020006f
:10108000008060000000e00002003200f6ff070070
:101090001568a9000080fa00000006000000fa00b0
:1010a0000080fa00000006000000fa00a140800065
:1010b00000002100008060000000e000020032001b
:1010c000f6ff07001588a9000080fa00000006005e
:1010d0000000fa000080fa00000006000000fa009c
:1010e000a140800000002200008060000000e000bd
:1010f00002003200f6ff070015a8a9000080fa00e0
:10110000000006000000fa000080fa00000006005f
:101110000000fa00a1408000000024000080600070
:101120000000e00002003200f6ff070015c8a90029
:101130000080fa00000006000000fa00007c800039
:101140000080fa00000006000200fa00faff070023
:10115000000f78001e007800240007000004e00063
:101160000200320000002800710007001e00780015
:101170002a0007000004e000020032000000240002
:101180006b0007001e007800320007000004e0003a
:101190000200320000202000650007001e007800d9
:1011a0003a0007000004e0000200320000082000be
:1011b0005f0007001e007800420007000004e00006
:1011c0000200320000042000590007001e007800d1
:1011d0004a0007000004e000020032000001200085
:1011e000530007000080fa00000006000400fa0027
:1011f000100798000040eb00004f78001e009000a0
:101200000000e00002003d0010c0b300004f780075
:101210001e4078000080fa00000006000400fa007a
:10122000100798000040eb00004f78009e009000ef
:1012300000002400008060000000e0000200320096
:1012400010c0b300004f78001e4078000080fa0004
:10125000000006000400fa00100798000040eb00b0
:10126000004f78009e009000002020000080600069
:101270000000e0000200320010c0b300004f780010
:101280001e4078000080fa00000006000400fa000a
:10129000100798000040eb00004f78009e0090007f
:1012a00000082000008060000000e0000200320022
:1012b00010c0b300004f78001e4078000080fa0094
:1012c000000006000400fa00100798000040eb0040
:1012d000004f78009e009000000420000080600015
:1012e0000000e0000200320010c0b300004f7800a0
:1012f0001e4078000080fa00000006000400fa009a
:10130000100798000040eb00004f78001e0090008e
:10131000700060000000e0000200320010c0b30066
:10132000004f78001e4078000080fa0000000600a0
:101330000200fa00000f78009e80ea00007c800026
:1013400000806000007c88000080fa000000060039
:101350000000fa00802fef000080fa000000060075
:101360000000fa000421ef00805f2100400888009f
:101370000001280000088800608080000000e00074
:1013800002003a00e0722000240007000028a900b3
:101390002028a800e00221008040eb0001487800ee
:1013a0000080fa00000006000200fa00000f78003a
:1013b0009e00780041088800e00221008040eb0098
:1013c000014878000080fa00000006000000fa00e2
:1013d000400880000080fa00000006000200fa00c9
:1013e000000f78009e00780021088800e0022100ac
:1013f0008040eb00014878000080fa000000060001
:101400000000fa00200880000080fa0000000600ba
:101410000000fa000080fa00000006000200fa0056
:10142000000f78002028a9009e00780061808800c5
:101430002028a8000080fa00000006000000fa0042
:10144000e00221008040eb00014878002028a8003d
:1014500001e1a8000080fa00000006000000fa0088
:1014600001e1a9002028a9000080fa000000060080
:101470000200fa00e0022100104f78001e407800c0
:101480000004e00003003200e00221008040eb0095
:10149000014878001e4078000080fa000000060035
:1014a0000000fa00f0022100104078000080fb00ec
:1014b0000080fa00000006000000fa00f00221009f
:1014c0008040eb00014878000080fa000000060030
:1014d0000000fa0010002300307c88007008200013
:1014e000407c88008c2fef0010032000507c880087
:1014f00010102800707c8800d0072000807c8800b5
:1015000010022000907c88009a2fef00b82fef0087
:10151000ba2fef00be2fef00002def00a42fef0039
:10152000a62fef00a82fef00aa2fef00ae2fef009d
:10153000b02fef00b22fef00120020008007200034
:10154000a109200053f820008049780081497800e3
:1015500082497800120020006004200071052000fc
:1015600043f820008049780081497800824978005a
:1015700000000000207c8000610060000000e000ae
:10158000fcff3a0000000000217c800000022000e7
:10159000008060000000e000fbff32000080fa00e5
:1015a000000006000000fa00707c8000ee800a0057
:1015b000000000000080fb0000f0a7000000ea002f
:1015c0000000ea004f00de00004078000080fa00d2
:1015d000000006000000fa00062eef00222eef00a9
:1015e0003e2eef005a2eef00f00120001070880010
:1015f000d0ff2300f0708800f03f2f00d0718800ea
:101600000080eb00b07288000c2eef00282eef0057
:10161000442eef00602eef000a2eef00262eef0082
:10162000422eef005e2eef00082eef00242eef007a
:10163000402eef005c2eef00f001200000708800cb
:1016400050382000e0708800f00c2000c071880045
:1016500000c02700a072880031aea80033aea900f8
:101660002b6ea8002beea800e074200007000700f6
:101670000068a9002068a8000080fa0000000600a9
:101680000000fa000080fa00000006000200fa00e4
:10169000000f78002068a9009e0078004180880033
:1016a0002068a8000080fa00000006000200fa008e
:1016b000000f78001e007800f4ff07000080fa0099
:1016c000000006000200fa00000f780021028000ee
:1016d000200f2000008060001e00700020028800a3
:1016e0000080fa00000006000000fa00c3e8a8002d
:1016f00000000000000000000080fa00000006006a
:101700000000fa00b3ff070071ff0700290007007f
:10171000f2fd070012ff0700f3ff070000022000a0
:0c172000e8ff07000080fa00000006004f
:020000040000fa
:10172c000810000002000000800000000e100000f5
:10173c0020000000800000000a10000002000000e1
:10174c0082000000ffff00002e10000002000000cd
:10175c00800000000c10000002000000800000005f
:10176c0000100000080000008000000000000000d5
:020000040000fa
:10177c00f03fb1000180b10006003500ee03090016
:10178c0000000000403fb1000180b100fbff3d00b4
:10179c001000b000203fb0000200350000800900ae
:0817ac0000000000000006002f
:020000040000fa
:1017b4000000fa0001428000f0ff28000080600071
:1017c40000c0a0000042880001428000f0f82f0011
:1017d400008060000040a000004288000080fa0001
:1017e400000006000200fa00000f78009e00780056
:1017f40051808800ffff37000000fa00e00021005c
:101804008007780060022100000188000080fa004f
:0418140000000600ca
:020000040000fa
:04181800ffffff00cf
:020000040000fa
:020000040005f5
:047e0000ffffff0081
:020000040000fa
:020000040005f5
:047e2000ffffff0061
:020000040000fa
:020000040005f5
:047e300078ffff00d8
:020000040000fa
:020000040005f5
:047e38007fffff00c9
:020000040000fa
:020000040005f5
:047e40006003ff00dc
:020000040000fa
:020000040005f5
:047e4800ffffff0039
:020000040000fa
:020000040005f5
:047e5000deffff0052
:020000040000fa
:020000040005f5
:047e58000000ff0027
:020000040000fa
:020000040005f5
:047e60000000ff001f
:020000040000fa
:020000040005f5
:047e68000000ff0017
:020000040000fa
:020000040005f5
:047e70000000ff000f
:020000040000fa
:020000040005f5
:047e7800ffffff0009
:020000040000fa
:020000040005f5
:047e8000fffcff0004
:020000040000fa
:020000040005f5
:047e8800ffffff00f9
:020000040000fa
:020000040005f5
:047eb000ffffff00d1
:020000040000fa
:020000040005f5
:047ec000ffffff00c1
:020000040000fa
:020000040005f5
:047ed000ffffff00b1
:020000040000fa
:020000040005f5
:047ee000ffffff00a1
:020000040000fa
:020000040005f5
:047ef000ffffff0091
:020000040000fa
:020000040005f5
:047ff800ffffff0088
:020000040000fa
:020000040100f9
:04300000feffff00d0
:00000001FF
